S01800006275696C642F6D6963617A2F6D61696E2E73726563E5
S11300000C9461010C9497070C94A1070C94AB0712
S11300100C94B5070C94BF070C94C9070C94320ECA
S11300200C94D3070C9480010C9480010C947B1ADB
S11300300C94191C0C9461070C9477070C94D40B42
S11300400C9450070C94EC120C949A090C948001B3
S11300500C94160A0C9480010C9480010C94800179
S11300600C946C070C94690B0C94480B0C94530B74
S11300700C945E0B0C947C0B0C942B0B0C94800155
S11300800C943D0B0C9480010C9480017913C613DD
S11300906114AF14B51406152215281560151B1626
S11300A03E165216C317F61743186C1851196519E2
S11300B067196A19BA197113351A431A0000211005
S11300C0422063308440A550C660E77008812991BE
S11300D04AA16BB18CC1ADD1CEE1EFF13112100266
S11300E073325222B5529442F772D662399318830E
S11300F07BB35AA3BDD39CC3FFF3DEE36224433432
S113010020040114E664C774A44485546AA54BB55D
S113011028850995EEE5CFF5ACC58DD55336722605
S113012011163006D776F6669556B4465BB77AA7AD
S113013019973887DFF7FEE79DD7BCC7C448E55851
S11301408668A7784008611802282338CCC9EDD9FD
S11301508EE9AFF9488969990AA92BB9F55AD44AA5
S1130160B77A966A711A500A333A122AFDDBDCCB4D
S1130170BFFB9EEB799B588B3BBB1AABA66C877C71
S1130180E44CC55C222C033C600C411CAEED8FFD9D
S1130190ECCDCDDD2AAD0BBD688D499D977EB66E45
S11301A0D55EF44E133E322E511E700E9FFFBEEFED
S11301B0DDDFFCCF1BBF3AAF599F788F8891A981AF
S11301C0CAB1EBA10CD12DC14EF16FE18010A10099
S11301D0C230E3200450254046706760B983989389
S11301E0FBA3DAB33DC31CD37FE35EF3B1029012E9
S11301F0F322D2323542145277625672EAB5CBA555
S1130200A89589856EF54FE52CD50DC5E234C32438
S1130210A01481046674476424540544DBA7FAB728
S11302209987B8975FE77EF71DC73CD7D326F23688
S11302309106B01657667676154634564CD96DC974
S11302400EF92FE9C899E9898AB9ABA944586548D8
S113025006782768C018E1088238A3287DCB5CDBC8
S11302603FEB1EFBF98BD89BBBAB9ABB754A545A28
S1130270376A167AF10AD01AB32A923A2EFD0FED94
S11302806CDD4DCDAABD8BADE89DC98D267C076C78
S1130290645C454CA23C832CE01CC10C1FEF3EFF68
S11302A05DCF7CDF9BAFBABFD98FF89F176E367EC8
S11302B0554E745E932EB23ED10EF01E00081C18EB
S11302C0141011241FBECFEFD0E1DEBFCDBF11E06B
S11302D0A0E0B1E0EAE3F8E400E00BBF02C007905D
S11302E00D92A035B107D9F719E0A0E5B1E001C03E
S11302F01D92AB34B107E1F70E94A71C0C941C2497
S11303000C9400008FB7F894992708958FBF08952F
S1130310282F9FB7F894E82FFF27EC56FE4F8081D3
S11303208F3F81F4E0913E09E21771F40BC02093F2
S1130330F70804C0FF27EC56FE4F208320933E09A4
S113034020E007C025E005C08091F7088F3F91F7B2
S1130350EECF892F99278FBF822F992708951F9356
S11303601FB7F89480913A09882341F48FE00E94E2
S11303708801882319F481E080933A09812F992711
S11303808FBF1F910895382FFA01422F2D3118F095
S113039082E090E008956683872F992785833387C9
S11303A021878091610190916201892B19F085E088
S11303B090E008952FB7F894332785E08093640183
S11303C010926501F0936001E0935F0182E090E098
S11303D0909362018093610110926701109266010B
S11303E0445F409363012FBF8FB7F894282F3327BE
S11303F08091A0028A3011F42FBF19C02FBF9FB77C
S1130400F8948091F901882311F020E006C081E07E
S11304108093F9011092FA0121E0892F99278FBF67
S1130420222329F00E94AF0180E090E00895109209
S113043062011092610181E090E00895CF93DF930F
S1130440DB01FB0135968183892F9927EB018D838D
S113045084E686838091220290912302892B19F0ED
S113046085E090E029C070932302609322024483C4
S113047080914101882319F480E090E01DC08681B9
S1130480EB016D817727762F662721813327622B35
S1130490732B10924101242FAD010E94C3019927AF
S11304A0282F882339F081E08093410110922302A0
S11304B010922202822F9927DF91CF9108958FB74E
S11304C0F89499272BB331E023272BBB8FBF0895D2
S11304D08091A0028A3021F48091D001843021F0EF
S11304E081E080935C01089581E10E94880110926B
S11304F05C0108952FB7F89433278CB95E9A2FBF07
S11305000895FC016115710519F481E090E00895E6
S11305108091F1019091F201892B19F085E090E02E
S1130520089570939C0860939B08F093F201E09304
S1130530F1011092D2011092D10181E08093D30194
S11305405E9A569A808121E030E03093D201209364
S1130550D1010E947A0280E090E008958FB7F89468
S1130560992720916D012E7F20936D012EE7209312
S1130570AF018FBF61E070E08FEA91E00E948102D9
S113058099270895FC0182819927582F4427818156
S11305909927482B592BCA01892F99278695869527
S11305A0837090708230910559F08330910559F031
S11305B0892B19F420E030E008C02CE93FEF05C096
S11305C022E030E002C028E030E0CA0184E0989FD5
S11305D0812D992711248230910559F0833091059A
S11305E059F0892B19F480E090E008C08CE99FEF62
S11305F005C082E090E002C088E090E0280F391F37
S11306002A5F3F4FCF01820F931F0895282F9FB772
S1130610F894662349F0E82FFF27E755FD4F8081C2
S1130620882311F021E006C0E22FFF27E755FD4F94
S1130630608320E0892F99278FBF822F99270895FF
S1130640E82F8FB7F894282F332790E0FF27E7553A
S1130650FD4F8081861709F491E02FBF892F9927D8
S11306600895882311F06E9A08956E98089588234A
S113067011F06F9A08956F98089580E00E943103F5
S1130680BA9ABB98B99AB89A6C9A80E00E943703D8
S11306906B986A9881E00E943103709A8DB18C7FC7
S11306A08DB908950F931F93CF93DF93182F8FB7AE
S11306B0F894C82FDD270C2F61E080E00E94060328
S11306C0882321F0CFBF85E090E024C080913301DE
S11306D08823A1F480915501823081F409C082E01D
S11306E080935501109233010E943D03B89AC0983B
S11306F01093300180E00FBF99270CC08091550101
S1130700882369F38FB7F89499271092A9028FBFB1
S113071081E0F1CFDF91CF911F910F9108951F9345
S1130720182F81E00E9431031FB9779BFECF8FB150
S113073099271F9108958F929F92AF92BF92CF9263
S1130740DF92EF92FF920F931F93CF93DF938FB7B4
S1130750F8949927C0900209D090030980909D02D3
S113076090909E02C0912002D091210220917501A7
S113077030917601EAE0AE2EB12CAC0EBD1E2A15E6
S11307803B0508F459018FBF7401EC0EFD1E860170
S11307900C0F1D1F14C0C114D10419F0F80180817D
S11307A001C080E00E948F038114910411F0F701CD
S11307B0808321960894E11CF11C0F5F1F4FC50133
S11307C00197C817D90738F381E00E9437039FB710
S11307D0F894C114D10431F0CC0EDD1EF6018081F1
S11307E08FB901C01FB8D0932102C0932002892F72
S11307F099278FBF80E090E0DF91CF911F910F91F7
S1130800FF90EF90DF90CF90BF90AF909F908F902C
S113081008952FB7F89433275093760140937501C8
S1130820909303098093020970939E0260939D0242
S113083010922102109220022FBF452B29F08FB174
S11308400E949B039927089589E00E94880180E013
S113085090E008958FB7F89499271092AB028FBF58
S11308600895442319F00E945F0220C03FB7F89412
S113087020914409E22FFF27EE0FFF1FE150FE4FA6
S1130880808191816817790771F4822F8F5F80933B
S113089044098C3010F01092440980918B01882314
S11308A011F010928B01832F99278FBF81E00E9452
S11308B0880108957FB7F89462B720917801309148
S11308C0790140917A0150917B0106B601FE0FC077
S11308D081B792B7280F311D411D511D2F5F3F4F26
S11308E04F4F5F4F290F311D411D511D04C0260F6D
S11308F0311D411D511D872F99278FBFCA01B90191
S11309000895EF92FF920F931F93E0913402E1FF59
S11309102BC020912C0230912D0240912E02509137
S11309202F02E0903002F0903102009132021091D7
S11309303302621B730B840B950B6E157F058007C6
S1130940910790F0E0FF04C0ED7FE09334020CC007
S11309502E0D3F1D401F511F20932C0230932D025A
S113096040932E0250932F028DE00E9488011F9124
S11309700F91FF90EF900895DF92EF92FF920F9303
S11309801F938FB7F894282F3327D22E91B782B7AD
S113099046B7981711F041FF02C02FBF6AC080917B
S11309A017028823E1F10E945A04E090A502F09016
S11309B0A6020091A7021091A80220918D01309106
S11309C08E0140918F01509190016E197F09800B27
S11309D0910B621773078407950720F01092170292
S11309E071E01EC02E0D3F1D401F511F80917801E4
S11309F090917901A0917A01B0917B01281B390B68
S1130A004A0B5B0B273E31054105510540F4822F0B
S1130A10223010F070E005C070E082E002C070E0A7
S1130A2086EE682F615000B601FCFDCF82B76817CF
S1130A3009F46F5F209178013091790140917A0136
S1130A4050917B01DA01C9010196A11DB11D860FE8
S1130A50911DA11DB11D82179307A407B50710F4BA
S1130A60622F609561BFDFBE772319F08CE00E948E
S1130A7088011F910F91FF90EF90DF900895AFB719
S1130A80F894BB27E1E0E09317026093A50270930A
S1130A90A6028093A7029093A80220938D0130931D
S1130AA08E0140938F0150939001AFBF0E94BC040C
S1130AB0089580E8809391011092CF011092FB0871
S1130AC01092F6081092B3010895CF93DF93FC01BE
S1130AD015A6DC019E96ED011B821A82198280E81C
S1130AE086A7DF91CF9108952F923F924F925F9204
S1130AF06F927F928F929F92AF92BF92CF92DF922A
S1130B00EF92FF920F931F93CF93DF93CDB7DEB78E
S1130B1028970FB6F894DEBF0FBECDBF2090DA0140
S1130B203090DB014090DC015090DD016624772495
S1130B3088240EE4A02E13E8B12ECC24DD24EE2468
S1130B40FF2400E010E0222D332D442D552D662D79
S1130B50772D882D90E00E94341F29833A834B839C
S1130B605C836D837E838F839887822E932EA42E3D
S1130B70B52E2401350100E20E943220A22EB32EAC
S1130B80C42ED52EC301B2019695879577956795A6
S1130B906A0D7B1D8C1D9D1D97FF05C09F776F5FA0
S1130BA07F4F8F4F9F4F6093DA017093DB018093E7
S1130BB0DC019093DD0128960FB6F894DEBF0FBEDA
S1130BC0CDBFDF91CF911F910F91FF90EF90DF90F8
S1130BD0CF90BF90AF909F908F907F906F905F90D9
S1130BE04F903F902F9008958FB7F894609124020E
S1130BF0709125022CB53DB506B602FE04C06F5FA8
S1130C007F4F2CB53DB599278FBF88279927CB01F6
S1130C107727662744275527622B732B842B952B24
S1130C200895EF92FF920F931F930E94F4057B01A6
S1130C308C012091E9013091EA014091EB0150913E
S1130C40EC018091E3019091E401A091E501B09160
S1130C50E601820F931FA41FB51FE216F3060407D3
S1130C60150730F082179307A407B50758F005C09D
S1130C7082179307A407B507E0F5E816F9060A07F3
S1130C801B07B8F59C01AD012E193F09400B510B10
S1130C90213060E8360760E0460760E0560768F1F7
S1130CA080E090E8A0E0B0E0E80EF91E0A1F1B1FE8
S1130CB0E092E901F092EA010093EB011093EC0158
S1130CC080E090E8AFEFBFEFE80EF91E0A1F1B1F8C
S1130CD020503048404050402093E3013093E401D9
S1130CE04093E5015093E60120E030E840E050E015
S1130CF014C020E030E040E050E08093E90190939C
S1130D00EA01A093EB01B093EC011092E30110927D
S1130D10E4011092E5011092E601A901B7012CB596
S1130D203DB5C9018E199F0903968417950720F0D4
S1130D30B9016D5F7F4F02C0640F751F61157105A6
S1130D4011F461E070E0615070407BBD6ABD80E1E8
S1130D5086BF87B7806187BF1F910F91FF90EF9087
S1130D6008950F931F930FB7F89411276093E90127
S1130D707093EA018093EB019093EC012093E301DB
S1130D803093E4014093E5015093E6010E9411067B
S1130D900FBF1F910F910895CF92DF92EF92FF92B0
S1130DA00F931F93CF93DF938C01F62E6A01E22EEB
S1130DB08FB7F894C82FDD2760E080E00E942003FD
S1130DC0882321F0CFBF80E090E01EC0CFBF0F0D7D
S1130DD0111D802F80680E948F03F82E16950795A9
S1130DE0802F807C0E948F030E2D0AC0EE2DFF27DA
S1130DF0E01BF109EC0DFD1D80810E948F03015061
S1130E000023A1F78F2D9927DF91CF911F910F9187
S1130E10FF90EF90DF90CF90089597B79F7D97BF95
S1130E2090E296BF882319F08EB5806402C08EB517
S1130E308F7B8EBD87B7806287BF80E090E0089586
S1130E40AF92BF92CF92DF92EF92FF920F931F93D4
S1130E50CF93DF93CDB7DEB728970FB6F894DEBFF4
S1130E600FBECDBF20E070E0E0912E01F0912F0184
S1130E7032E14DE65CE46FE480912F019E2F2896C9
S1130E800FB6F894DEBF0FBECDBFDF91CF911F9197
S1130E900F91FF90EF90DF90CF90BF90AF900895A7
S1130EA01F920F920FB60F9211248F9383B783BFB3
S1130EB000B600FCFDCF8F910F900FBE0F901F90D6
S1130EC0189578941F920F920FB60F9211240F90D9
S1130ED00FBE0F901F90189578941F920F920FB623
S1130EE00F9211240F900FBE0F901F9018957894B5
S1130EF01F920F920FB60F9211242F933F938F934B
S1130F009F932FB7F8943327809124029091250260
S1130F10019690932502809324022FBF9F918F9175
S1130F203F912F910F900FBE0F901F9018951F9215
S1130F300F920FB60F9211240F900FBE0F901F90B7
S1130F4018951F920F920FB60F9211240F900FBE97
S1130F500F901F9018951F920F920FB60F921124A5
S1130F600F900FBE0F901F9018951F920F920FB6FF
S1130F700F9211240F900FBE0F901F9018951F927F
S1130F800F920FB60F9211240F900FBE0F901F9067
S1130F9018951F920F920FB60F9211240F900FBE47
S1130FA00F901F9018951F920F920FB60F92112455
S1130FB00F900FBE0F901F901895ECEBF0E069278F
S1130FC0660FF11DE60FF11DC895982F802D3196FF
S1130FD0C89590250895982F80916801882389F5F4
S1130FE0992379F531E03093680180913A01809337
S1130FF0690120915D01822F81708093920180911B
S11310003F019091400190936B0180936A0180911C
S11310105E0180936C0132273170267EE32FFF2717
S1131020EE0FFF1FE55CFE4F80819181909340019C
S113103080933F01232B20935D0184E10E9488016A
S1131040089580915D0180FF02C08B7F01C08D7F78
S113105080935D0108950F931F93082F162F80919D
S1131060D0018130D9F0813038F0823009F44AC09F
S1131070833009F028C159C0002309F458C11092E3
S11310809508109294081092A30210929D08109251
S1131090D401109227021092260239C1002309F0CC
S11310A046C180912602909127020E94DD07909309
S11310B027028093260282E08093D00110939D083A
S11310C0143409F000C125C18695869503C080912A
S11310D05D018695817009F0F6C080915D019923C8
S11310E011F0846001C0826080935D0180915D0194
S11310F0877E886080935D0110925E018FEF8093FC
S11311003A0115C1002309F0DEC06093D401809137
S11311102602909127020E94DD0790932702809374
S1131120260283E08093D00102C18091A3028F3F05
S113113009F4C9C0002309F461C0823008F4C3C0B3
S1131140E0919408EE2309F4EBC04E2F4150E42FB4
S1131150FF27EC56F74F82819927382F2227442303
S113116011F4E2E002C0E42FE150FF27EC56F74F00
S113117082819927282B392B80912602909127026E
S11311802817390709F09FC080E00E94EB073091CF
S1131190D4018091180220911902982F9F5F9630F4
S11311A008F090E0921771F0E82FFF27E85EFD4FFA
S11311B032838F5F80931802863010F010921802E9
S11311C00E94AF01109295081092940894E09093B5
S11311D0D0011092A30210929D081092D401109293
S11311E027021092260280916D018D7F80936D01FC
S11311F080915C01882309F49AC084C0823008F489
S11312004EC0E0919508FF27EC56F74F8281482F96
S11312105527342F20915D01822F869586958695DA
S1131220837099278130910519F00297F9F40EC063
S1131230277E206120935D01442311F485E001C0E1
S113124080E080935E0130933A0110C080915E018A
S1131250843360F4E0913F01F0914001E80FF11D07
S1131260408380915E018F5F80935E018091950839
S1131270E82FFF27EC56F74F62818F5F8093950824
S1131280833010F010929508772780912602909170
S113129027020E94DD079093270280932602809103
S11312A09408E82FFF27EC56F74F12838F5F809343
S11312B09408833010F0109294088091A3028F5FF9
S11312C08093A30234C0109295081092940814E0FD
S11312D01093D0011092A30210929D081092D40191
S11312E0109227021092260280916D018D7F8093C7
S11312F06D0181E00E94EB0780915C01882329F055
S11313001093D0010E94680212C0002381F081E092
S113131009CF80915D01982F917080FDD5CED7CEF5
S1131320809198089927382F222742E01CCF1F91DB
S11313300F9108951F920F920FB60F9211242F93BD
S11313403F934F935F936F937F938F939F93AF9349
S1131350BF93EF93FF935F9B3DC06CB1E091280274
S1131360F09129023097F9F0809138099091390968
S1131370E80FF91F60830196909339098093380927
S113138020914209309143098217930718F1109272
S113139029021092280280919F028330D9F0579835
S11313A010929F0217C06E3719F460E081E010C0FC
S11313B080916D016D3721F4826080936D010AC0C4
S11313C081FF05C08D7F80936D0180E2682780E0F6
S11313D00E942B08FF91EF91BF91AF919F918F9144
S11313E07F916F915F914F913F912F910F900FBE1D
S11313F00F901F901895982F8D57823068F4809124
S11314006D01816080936D0180E289278093A2023F
S11314108DE78093AF0102C09093AF0161E070E06B
S11314208FEA91E00E9481029927089578941F928F
S11314300F920FB60F921124FF920F931F932F93C5
S11314403F934F935F936F937F938F939F93AF9348
S1131450BF93CF93DF93EF93FF932091D10130910A
S1131460D20180919B0890919C082817390780F439
S1131470E091F101F091F201E20FF31F80812F5FFF
S11314803F4F3093D2012093D1010E947A02CDC004
S11314901092F2011092F1011092D3015698FFB606
S11314A0F89480916D0180FF0EC08E7F80936D0152
S11314B08091A2028093AF0161E070E08FEA91E035
S11314C00E948102AFC08091A002843009F48CC0D4
S11314D0853040F4823021F18330B8F5813009F051
S11314E09CC00DC0863009F48DC0863008F483C0DA
S11314F0873009F48EC0883009F08FC091C0809184
S1131500E8010E94FB09082F83E08093A002609108
S1131510E80180914009909141090E94DD0710C0C3
S11315208091FA080E94FB09082F83E08093A002AF
S11315306091FA0880914009909141090E94DD0769
S1131540909341098093400966C0E0912B02FF27E4
S1131550EE0FFF1FE850FE4F80810E94FB09082F09
S113156010912B02C12FDD27FE01EE0FFF1FE85063
S1131570FE4F608180914009909141090E94DD07EE
S113158090934109809340092091E2012F5F2093B9
S1131590E201113039F580916401E0915F01F0912D
S11315A06001E80FF11DE0818F5F809364019091E9
S11315B06301981730F482E08093F90140E050E031
S11315C002C04E2F5527DE01AA0FBB1FFD01E950B3
S11315D0FE4F8081823031F02F3F21F0A850BE4F62
S11315E04C9319C084E012C0809140090E94FB0909
S11315F0082F85E00BC0809141090E94FB09082F48
S113160086E004C00E94AE02082F87E08093A00207
S113161002C088E003C0002329F089E08093A0027F
S11316200E94AF018F2D99278FBFFF91EF91DF911A
S1131630CF91BF91AF919F918F917F916F915F9166
S11316404F913F912F911F910F91FF900F900FBEDB
S11316500F901F9018951F920F920FB60F9211249E
S11316608F9380919B0087FF02C080919C008F9193
S11316700F900FBE0F901F90189578941F920F92A1
S11316800FB60F9211240F900FBE0F901F90189554
S113169078941F920F920FB60F9211240F900FBEE1
S11316A00F901F90189578941F920F920FB60F9277
S11316B011240F900FBE0F901F90189578941F92CD
S11316C00F920FB60F9211240F900FBE0F901F9020
S11316D0189578941F920F920FB60F9211248F933E
S11316E09F9380918000909181009F918F910F90A2
S11316F00FBE0F901F90189578941F920F920FB6FB
S11317000F9211242F933F938F939F932FB7F894A5
S113171033278091E0019091E10101969093E101DA
S11317208093E0012FBF9F918F913F912F910F9054
S11317300FBE0F901F901895CF93DF93CDB7DEB7F0
S11317402C970FB6F894DEBF0FBECDBF8FB7F894B9
S1131750282FAE014F5F5F4FDA01EFEAF2E088E035
S113176001900D928150E1F78091D5019091D601BD
S11317708987892F99278A878091ED019091EE01BD
S11317808B87892F99278C872FBF2CE060E080E618
S113179091E00E94CC062C960FB6F894DEBF0FBEE3
S11317A0CDBFDF91CF9108951F920F920FB60F9284
S11317B011242F933F934F935F936F937F938F9352
S11317C09F93AF93BF93EF93FF9383B783BF00B609
S11317D000FCFDCF81B799270196AA27BB2720914A
S11317E078013091790140917A0150917B01280F61
S11317F0391F4A1F5B1F209378013093790140936E
S11318007A0150937B0178940E94BC04FF91EF917C
S1131810BF91AF919F918F917F916F915F914F9104
S11318203F912F910F900FBE0F901F9018950F931B
S11318301F93182F0FB7F89461E080E00E9406030D
S1131840882371F510933001809133018823A9F521
S113185080915501823089F588E00CC00E943D03D7
S113186080915501882349F481E0809355011092B9
S1131870B4018AE00E9488012AC08091E7018F3F69
S113188031F5E0913201EE2311F11CC010923101C7
S113189004C0FF27E951FE4F10821092320117C095
S11318A081E090E002C0880F991F1A95E2F7209119
S11318B05401282B209354010AC080915501882398
S11318C0E1F6CCCF809131018F3F19F7DFCF802F24
S11318D099278FBF80E090E01F910F9108951F9387
S11318E083E00E9452039927182F882319F083E07C
S11318F00E94170C812F99271F91089580917001E0
S11319008C3118F04CE150E002C0482F55278CE18F
S1131910E0E1F9E011928A95E9F7909170018091E4
S11319206E0120E030E0A0E1B9E00FC0E82FFF270E
S1131930E65DFA4FE081992329F08F5F8A3F09F42D
S113194080E09150ED932F5F3F4F2417350771F7D7
S11319509093700180936E014CE164E079E08FEF25
S11319609FEF0E941E02882319F087E10E948801DC
S113197008958FB7F894282F33278091710181300F
S113198021F42FBF80E090E0089590E080917001F1
S1131990882309F491E0992321F02FBF81E090E09E
S11319A0089581E0809371012FBF0E947E0C80E036
S11319B090E00895FF920F931F93CF93DF93EC0170
S11319C0FB012A30D9F488A5992787FD9095818356
S11319D0292F33272083322F22279927282B392B8D
S11319E03F932F9380E091E09F938F930E94742103
S11319F00E94B90C0F900F900F900F90FFB6F894BF
S1131A008091DF01882321F580918C019927FC01C5
S1131A10EE0FFF1FEB54FE4F00811181D183C08371
S1131A2001966CE070E00E94D52080938C01209197
S1131A30A102281719F481E08093DF018091FC084A
S1131A40882349F40E94880181E08093FC0803C044
S1131A500E945F028E018F2D99278FBFC801DF91ED
S1131A60CF911F910F91FF900895662351F48091B7
S1131A707001882319F00E947E0C08951092710160
S1131A80089587E10E9488010895EF92FF920F93D1
S1131A901F93CF93DF93182F7B01042FE82FFF2789
S1131AA0EE0FFF1FEE5DFD4F118210821092410177
S1131AB0A0912202B0912302109721F08091FD0899
S1131AC080FF0EC081E08093410103C086E10E9443
S1131AD088011123C9F4602FC7010E94350D14C079
S1131AE0FD01359624813327ED016D817727762F0B
S1131AF0662781819927682B792BAD0186810E9405
S1131B00C301882331F3E2CFDF91CF911F910F916D
S1131B10FF90EF9008951F93182F809171018823EF
S1131B2049F4809170018D3728F081E08093710130
S1131B300E947E0C8FB7F894282F33279091700160
S1131B409A3FA8F480916F01E82FFF27E65DFA4FD2
S1131B5010838F5F80936F018A3F11F410926F019D
S1131B609F5F909370012FBF80E090E003C02FBF70
S1131B708FEF9FEF1F9108951F93CF93DF93182F3B
S1131B808FB7F894C82FDD2760E080E00E9420031F
S1131B90882321F0CFBF80E090E005C0CFBF812F24
S1131BA00E948F039927DF91CF911F910895EF929F
S1131BB0FF920F931F93CF93DF93182F7B01042F72
S1131BC08FB7F894C82FDD2760E080E00E942003DF
S1131BD0882321F0CFBF80E090E014C0CFBF106411
S1131BE0812F99279093F4018093F3010E948F032E
S1131BF0182F402F5527B70180E090E00E94090478
S1131C00812F9927DF91CF911F910F91FF90EF9032
S1131C100895C098609172017091730141E08FE35F
S1131C200E94D70D089582E090E09093AD018093D7
S1131C30AC0181E08093CF0120E030E0809130015D
S1131C40843011F421E030E0232B29F484E00E9455
S1131C505203882319F40E94090E089584E00E9417
S1131C60170C08951F920F920FB60F9211242F9301
S1131C703F934F935F936F937F938F939F93AF9310
S1131C80BF93EF93FF938091AC019091AD010197C5
S1131C9049F482E090E09093AD018093AC010E94FE
S1131CA0130E05C08091B3018F5F8093B301FF9140
S1131CB0EF91BF91AF919F918F917F916F915F91C0
S1131CC04F913F912F910F900FBE0F901F90189539
S1131CD01F9380915401882309F04BC01091300167
S1131CE01F3F09F046C060E00E942003882309F4E6
S1131CF040C081E080932805809193018823E1F11D
S1131D001092280585E090E045C0923069F5C09AAC
S1131D108091310120E030E08F3F11F421E030E088
S1131D20232BE9F4109333018F3F19F42FEF30E0A4
S1131D300DC0282F3327F901E951FE4F808180938C
S1131D4031018F3F11F41093320110832093B401B9
S1131D5081E0809355018AE00E94880105C01093B8
S1131D6033011092550111C080915501882369F007
S1131D700FC081E090E00EC0809133019091550135
S1131D80882319F2923021F0EFCF80E00E943103D2
S1131D9080E090E01F9108951F93CF93DF939FB746
S1131DA0F894C92FDD271C2F90913001981721F04A
S1131DB0CFBF81E090E03AC08FEF80933001309143
S1131DC054013323F1F48FB7F89499271092A902A0
S1131DD08FBF0E94680ECFBF11C02093300181E0F5
S1131DE090E002C0880F991F4A95E2F78095382346
S1131DF03093540188E00E9488011FBF80E090E086
S1131E0015C080E065E0E32FFF270E94B520292F4D
S1131E10492F5527CF01042E02C0959587950A9422
S1131E20E2F780FDDACF822F8F5FEFCFDF91CF9182
S1131E301F9108951F93CF93DF938FB7F894C82F02
S1131E40DD271C2F8091AC019091AD01892B29F4E1
S1131E5084E00E94CC0ECFBF1EC01092CF018091AF
S1131E60B301882311F0B79904C00E9908C08823E0
S1131E7019F081508093B3010E94130E0BC081E0CE
S1131E8090E09093AD018093AC011092B30184E093
S1131E900E94CC0E1FBFDF91CF911F9108950E9425
S1131EA05905C09AC09888E00E94BC0D88E00E9441
S1131EB0BC0DC09A84E00E94CC0E0E941A0F0895B3
S1131EC0FF920F931F93CF93DF93F82E8B018FB75D
S1131ED0F894C82FDD2760E080E00E942003882367
S1131EE021F0CFBF80E090E00CC0CFBF8F2D0E94C7
S1131EF08F03812F99270E948F03802F0E948F03C5
S1131F009927DF91CF911F910F91FF9008951F930F
S1131F101FB7F8948091B201882319F460E070E04F
S1131F2009C060E080910109882309F461E081E03F
S1131F30682777278091D701882319F480E090E0FF
S1131F400AC090E08091AE02882309F491E081E018
S1131F509827892F9927762F6627770F770F770F82
S1131F6034E0880F991F3A95E1F7826E9262682BEC
S1131F70792B81E10E94600F812F99278FBF1F91D8
S1131F8008958FB7F8949927609127058FBF85E04E
S1131F90689FB0011124625D7E4F706488E10E94E5
S1131FA0600F0895EF92FF921F93CF93DF93E09019
S1131FB0D801F090D901F70182A59927182F882319
S1131FC009F41FE1C0988091B101811749F0612F94
S1131FD077276F717070606E706885E10E94600F82
S1131FE01093B101F70110818FB7F894C82FDD2742
S1131FF060E080E00E942003882311F0CFBF12C06C
S1132000CFBF8EE390E09093F4018093F3018EE3CD
S11320100E948F031150412F552760E070E0C701E3
S11320200E940904DF91CF911F91FF90EF900895D2
S11320300F931F93CF93DF93EC010FB7F8941127FD
S11320400E94C202FC018FE380830FBF1092FF083D
S11320501092FE0861E082E00E940603882319F0D2
S113206085E090E072C0809129058F5F80932905F7
S113207081508B838FB7F894082F112762E081E099
S11320800E942003882329F40FBF0E942A0481E0C0
S11320905BC08FB7F894992724E02093AA028FBFDE
S11320A0D093FE01C093FD010FBFFE0131968181E3
S11320B029819927982F88273327822B932B807285
S11320C09C7C8983892F992781832981982F88274C
S11320D033272164822B932B8983892F992781832A
S11320E01CA618A619A619AA18AA1FA680E88EA7C6
S11320F061E06093AD024091FD015091FE018FB704
S1132100F894282F332780915601909157018830F5
S1132110910511F0019711F02FBF15C082E090E0F6
S1132120909357018093560160933F095093D901CE
S11321304093D801109277012FBF0E946F0C88231F
S113214011F40E94D20F80E09927DF91CF911F9163
S11321500F9108951F93182F81E090E090935701F9
S113216080935601109293010E94680E8FB7F894E1
S11321709927109350018FBF84E00E9488011F911A
S11321800895CF92DF92EF92FF920F931F93CFB6F1
S1132190F894DD240E947405DC01CB0166E470E050
S11321A00E94C120BBE0EB2EF12CE80EF91EF09248
S11321B03C09E0923B090E94F40500271127A8017D
S11321C097010E94B106CFBE1F910F91FF90EF902F
S11321D0DF90CF9008951F93CF93DF938FB7F89438
S11321E0C82FDD271C2F8091560190915701089725
S11321F0C9F489E00E94BC0D83E00E94CC0EC09A11
S113220081E090E090935701809356018FB7F89442
S1132210992723E0209350018FBF84E00E94880116
S1132220CFBF30C0C09880913F09882311F085E06A
S113223001C084E00E94BC0D83FD09C080E00E94BF
S1132240BC0D83FF04C085E090E020E003C083E080
S113225090E021E09093570180935601C09A1FBFEC
S1132260222341F01092770183E00E94CC0E0E9459
S1132270C11008C00E94F40520E431E040E050E0C1
S11322800E94B106DF91CF911F910895EF92FF92C2
S11322900F931F93CF93DF938B018091F301909160
S11322A0F40186FF40C18F7B8F3309F08EC1C0914A
S11322B07201D091730158815093AE018091AC01A9
S11322C09091AD018530910509F443C086309105A4
S11322D009F48AC0029709F01FC185E090E0909349
S11322E0AD018093AC0140919101852F992701960E
S11322F0242F3327281739074CF1B79906C00E99B4
S113230004C0451B4150409391014091AE014A32B3
S1132310E8F44423A1F0BE016F5F7F4F483018F00A
S113232047E050E007C086E090E09093AD018093D1
S1132330AC01552780E090E00E94090446C1109248
S1132340CF01C09A84E00E94CC0EE3C00E944F0FDC
S11323503CC186E090E09093AD018093AC01809104
S1132360D701882309F439C08091AE028823A9F5E6
S1132370898185FF32C08F814E812FB7F89433272E
S11323806091ED017091EE012FBF9927982F882756
S11323905527842B952B8617970759F08F812E810B
S11323A09927982F88273327822B932B8F5F9F4F52
S11323B0A1F489818770813081F4C09AC0988AE041
S11323C00E94BC0DC09AC0984091AE014750289617
S11323D0BE018FE30E94D70DF8C04091AE01475073
S11323E055272896BE01A6CFC09A8091B3018823B1
S11323F039F484E00E94CC0E8091B301882311F05B
S1132400B7990AC00E9B08C09091F608992321F051
S11324108091AE018B3038F48091720190917301F8
S11324200E9465053DC0913001F5E091FB08FF274E
S1132430EE0FFF1FEE0FFF1FEE55F74F2081318186
S113244042815381E0917201F091730121ABBB276A
S1132450A52F942F832F80ABCA01AA27BB2787A758
S1132460252F33274427552726A78091FB08992732
S1132470019668E070E00E94D5208093FB0880916B
S1132480F60881508093F608882351F080917201F8
S1132490909173010E9465051092FB081092F60852
S11324A08091AE01FE01E80FF11D808187FF31C0EC
S11324B0012B79F169816770E0917201F0917301E8
S11324C0623019F5A091D801B091D901109709F1A2
S11324D080915601909157010797D9F4ED019B81A2
S11324E083819817B1F487B78F7E87BF908181E08D
S11324F08CA7E90FF11D8291319688A780818F778F
S113250089A780E00E94AA1004C0613011F48BE016
S11325102AC00E941A0F59C01092CF01C09A84E0B9
S11325200E94CC0E52C08E3309F04FC0C09A8091E5
S11325305601909157010897C9F4C09889E00E9408
S1132540BC0DC09A83E00E94CC0E81E090E0909391
S11325505701809356018FB7F894992723E020936D
S113256050018FBF84E00E9488012FC080913F09F1
S1132570882349F484E090E09093570180935601B6
S11325800E94EB1022C083E00E94CC0E83E090E016
S113259090935701809356010E947405DC01CB018E
S11325A066E371E00E94C1201BE0E12EF12CE80EED
S11325B0F91EF0928A01E09289010E94F405002735
S11325C01127A80197010E94B106DF91CF911F91B5
S11325D00F91FF90EF9008951F920F920FB60F92F4
S11325E011242F933F934F935F936F937F938F9314
S11325F09F93AF93BF93EF93FF932FB1E0919D020D
S1132600F0919E02309739F080912002909121023E
S1132610E80FF91F208380912002909121020196F6
S1132620909321028093200280E00E94370340911E
S113263075015091760180912002909121028417B6
S1132640950718F40E949B031CC060919D02709131
S11326509E02809102099091030910929E021092A9
S11326609D021092030910920209109276011092B1
S1132670750110922102109220022FB120E00E94D5
S11326804611FF91EF91BF91AF919F918F917F91EF
S11326906F915F914F913F912F910F900FBE0F90CB
S11326A01F901895CF92DF92EF92FF920F931F9392
S11326B0CF93DF93CDB7DEB7A8970FB6F894DEBFFC
S11326C00FBECDBFE82FFF27E831F10510F00C94C1
S11326D04F1AEA5BFF4FEE0FFF1F0590F491E02DB8
S11326E009948091FD08882309F4D9C690E011E08B
S11326F09AC68FB7F894282F3327422F90918C01D4
S11327008091A102981739F48091DF01882319F48C
S11327101092FC084CC04FBFE091A102FF27EE0FBE
S1132720FF1FEB54FE4FA081B1812C912D50332714
S113273020932A02FD018385678106814185908566
S11327405527542F4427E92FFF274E2B5F2BFD01DC
S11327504087452F55274783E091A102FF27EE0FBD
S1132760FF1FEB54FE4F408151817727762F662758
S11327701127602B712B0E94C301882309F0D5C552
S11327808FB7F89499272BB332E093C08FB7F8949E
S1132790282F3327422F9091740180914409981770
S11327A041F480918B01882321F410927C012FBF86
S11327B076C64FBFE0914409FF27EE0FFF1FE1509B
S11327C0FE4FA081B181FD018185682F7727462FB7
S11327D0858126816D3108F070C09927982F88274C
S11327E03327822B932B8683892F992787832FB7AF
S11327F0F89433278091D5019091D6012FBF84831B
S1132800892F992785832FB7F89433278091340132
S1132810909135012FBF8087892F992781878D015A
S11328200F5F1F4FF8018181FD0121819927982FA6
S11328308827332720643868822B932B8183892F40
S11328409927F8018183435F4C934D508091370160
S1132850882351F010923701CD010E941810992756
S1132860282F8823A9F417C0842F99279093FC015B
S11328708093FB01B0935B01A0935A018EE00E9408
S1132880880180913701882349F489E090E00AC0E7
S11328908FEF80933701822F992704C01092DE01B5
S11328A080E090E0892B49F48FB7F89499272BB3F3
S11328B034E023272BBB8FBFF2C50E945F0281E067
S11328C0ECC50FB7F894112781E00E940D07F1E0E1
S11328D0EF2EF12CF0925701E0925601109258011C
S11328E0109293011092B1010FBF0FB7F894112702
S11328F00E945905F092AD01E092AC011092CF0113
S113290089B78F7B89BF80E488BF8AB780628ABF1A
S11329108AB78F7E8ABF89B7806489BF0FBF8FB79C
S1132920F894082F11278091510190915201049736
S113293019F483E00E94BC0D0FBF0FB7F894112760
S1132940C09A80E00E94CC0E0FBF8FB7F8949927ED
S113295022E02093AA028FBF10928B01A0C58FB7EB
S1132960F89499271092AA02A6CF8FB7F8949927C2
S1132970F09050018FBF63E081E00E942003882320
S113298059F10FB7F894112710925701109256017C
S113299087B78F7E87BF87B78F7D87BF83E00E940D
S11329A0CC0EC09A0FBF0FB7F89411271092AD0147
S11329B01092AC010E945905C09A89B78F7B89BFD8
S11329C00FBF1092520110925101DE98DD98DE9AE9
S11329D083E00E94880107C08FB7F894992722E00A
S11329E02093AA028FBF0091FD011091FE010E9465
S11329F02A048091FE089091FF08892B09F04FC5A5
S1132A008FEF809337014F2DB8015DC38FB7F894D2
S1132A10282F3327122F80913D09882309F0C7CE30
S1132A2081E080933D098091510190915201049776
S1132A3021F481E00E94170C03C086E00E94880103
S1132A401FBF2DC58FB7F894992710923D0933CF36
S1132A508FB7F894282F332780915301882309F0E6
S1132A60A6CE2FBF80B39927E6E096958795EA9581
S1132A70E1F7182F11709091EF018091F0018917FF
S1132A80D9F01917C9F484E090E09093520180932F
S1132A9051018FB7F894992721E0209353018FBFF8
S1132AA060E070E08DE10E94600F0E949C0BC09A70
S1132AB0C09882E00E9488011093F00187E0EDC481
S1132AC08FB7F8949927109130018FBF123009F411
S1132AD065C0133030F4112359F0113009F0DFC40C
S1132AE048C0133009F474C0143009F0D8C4A0C02D
S1132AF0C0988FB7F894082F1127809151019091B5
S1132B005201029709F0ABC383E090E09093520125
S1132B108093510168E170E08DE10E94600F81E0D3
S1132B208093EF011092530180B3992776E0969534
S1132B3087957A95E1F7817090708093F00187E032
S1132B400E94880181E00E94BC0D6FE772E08CE175
S1132B500E94600F0E94C10F0E94870F66E57AE20F
S1132B6087E10E94600F6FEF70E885E10E94600FBB
S1132B7076C3C09886E00E94BC0D0E94C10F0E94DB
S1132B80870F0E949C0BC09AC09883E00E94BC0DE2
S1132B90C09A81E00E94CC0E86E07FC4C0988FB7B3
S1132BA0F894082F112760E080E00E942003882316
S1132BB011F00FBF0AC00FBF83E50E948F0380E0AE
S1132BC00E948F0380E00E948F03C09A82E02DC090
S1132BD08FB7F8949927209156018FBF243039F08C
S1132BE0283041F0223001F50E94D20F58C40E94CF
S1132BF0EB1055C4C09889E00E94BC0DC09A83E0D4
S1132C000E94CC0E8FB7F894992721E030E03093DE
S1132C105701209356018FBF8FB7F89499271093CB
S1132C2050018FBF84E039C483E00E94CC0E37C4C6
S1132C300E94090E34C40FB7F8941127409175010E
S1132C405091760160919D0270919E0280910209DB
S1132C509091030910929E0210929D021092030912
S1132C6010920209109276011092750110922102BD
S1132C701092200220E00E944611F1C22FB7F8946E
S1132C8033278091B4018093330182E0809355010E
S1132C902FBF80913301882309F001C4B89AC098EA
S1132CA088E0FBC3A0917201B0917301DC909D0197
S1132CB02D0D311DF9018081881F8827881FFD0192
S1132CC083A7F90180818F77FD0181A721503040CE
S1132CD0F9018081FD0180A7A0917201B091730177
S1132CE0FD0132818FB7F89499272091B2018FBFEB
S1132CF0222309F490C0832F99279695879596955A
S1132D008795837090708230910541F58781468163
S1132D102FB7F89433276091ED017091EE012FBF26
S1132D209927982F88275527842B952B8617970743
S1132D3019F481E090E06CC0FD018781268140E0B8
S1132D4050E09927982F88273327822B932B8F5F66
S1132D509F4F11F441E050E0CA015AC0039709F0B3
S1132D6009C19E012F5F3F4F4FEA52E088E0FA010C
S1132D700190AF01F90101929F018150C1F79E01B9
S1132D802F5D3F4FAE014F5F5F4F88E0FA01019026
S1132D90AF01F90101929F018150C1F79E01275FA4
S1132DA03F4FAE014F5D5F4F88E0FA010190AF01E4
S1132DB0F90101929F018150C1F79E012F5E3F4F9F
S1132DC0AE01475F5F4F88E0FA010190AF01F9015E
S1132DD001929F018150C1F79E01275E3F4FAE01D2
S1132DE04F5E5F4F88E0FA010190AF01F901019253
S1132DF09F018150C1F748E050E0BE01675E7F4FFC
S1132E00CD0106960E946021892B09F0B3C003C04E
S1132E10882309F4AFC0FCE0FD1508F0ABC0E090D6
S1132E207201F0907301F7012281822F992706E045
S1132E30969587950A95E1F7039719F468E070E091
S1132E4002C062E070E0822F992796958795969547
S1132E50879583709070039719F488E090E002C01E
S1132E6082E090E026E030E0E20EF31E40E050E025
S1132E7020E030E0F701E80FF91F8AEF9FEFE80E3A
S1132E80F91E05C08191480F511D2F5F3F4F261732
S1132E903707C4F3F70163818FEF809300098FB77D
S1132EA0F894782F20E030E0EDE7F1E08081918123
S1132EB08417950729F48281861731F1209300093C
S1132EC02F5F3F4F33962430310581F77FBF9091B8
S1132ED000093FB7F8949F3F21F080915901891769
S1132EE0A9F420915901822F9927FC01EE0FFF1FAD
S1132EF0E80FF91FE358FE4F5183408362832F5F2D
S1132F002370209359010EC07FBF30C0892F9927A9
S1132F10FC01EE0FFF1FE80FF91FE358FE4F51832A
S1132F2040836283832F99278FBF0FB7F8941127AB
S1132F30C7010E94C202FC0190810FBFF70183A563
S1132F408823A1F09F3391F4AD2DAD508701045F28
S1132F501F4F2FB7F89433272FBFF701238533274B
S1132F604A2FB801C7010E94DA0C7C01F092730168
S1132F70E09272018FB7F89499271092CF018FBF16
S1132F800E941A0F8CC28091B001882361F52091B0
S1132F909E0830919F084091A0085091A108EFB776
S1132FA0F894FF276091A5027091A6028091A70270
S1132FB09091A802E0908D01F0908E0100918F0114
S1132FC0109190016E0D7F1D801F911FEFBF209304
S1132FD09E0830939F084093A0085093A108109234
S1132FE0B0010E943F050E945A043AC00E945A044C
S1132FF07B018C018FB7F8949927109217028FBF29
S11330008091340281FF4BC280912C0290912D0259
S1133010A0912E02B0912F02A8019701281B390B11
S11330204A0B5B0BDA01C901209130023091310265
S11330304091320250913302281B390B4A0B5B0B2F
S11330402F3F8FEF38078FEF48078FE7580709F4B2
S113305026C212161306140615062CF0C801B70171
S11330600E9481041CC220939E0830939F084093C1
S1133070A0085093A10881E08093B001C801B70172
S11330800E943F050CC29091DE0180913701981790
S113309009F405C2909337019923D1F400915A01A0
S11330A010915B016091FB01C8010E941810482F28
S11330B05527442309F4F3C18FEF809337016091BE
S11330C05A0170915B01F80183850E943104E7C1C4
S11330D08FEF80933701E3C18FB7F89410923A09C8
S11330E02091A00240E0283009F441E030E029308A
S11330F009F431E0442311F4332351F01092A00277
S1133100E0912B02FF27EE0FFF1FE950FE4F1082C4
S113311099278FBF442311F4332331F19FB7F894D7
S11331208091FA088F5F8093FA088091E8018334D4
S113313079F42091190280911802821779F0822F74
S11331408F5F80931902863048F01092190206C0EE
S1133150A0E0442309F4A1E071E002C070E0A0E023
S1133160892F99278FBF06C0222311F0FF246DC039
S113317070E0A0E08FB7F894992720915C018FBF8D
S1133180222341F08FB7F89499272AE02093A002D4
S11331908FBF42C08FB7F89499276091F70140918F
S11331A0F9018FBF8FB7F894282F332750E09091FF
S11331B0180280911902981709F451E02FBF552382
S11331C041F5662331F55FB7F89482E08093F70107
S11331D08FB7F894282F332740E0909118028091FC
S11331E01902981709F441E02FBF442311F080E03D
S11331F006C0E0911902FF27E85EFD4F82818093AB
S1133200F80183E48093E80110922B02852F99271B
S11332100EC04150423010F0FF240CC08FB7F89418
S1133220992725E42093E80121E020932B028FBF06
S113323061E0F62E772349F08FB7F8949927A0938D
S113324065018FBF83E10E9488018FB7F894082F2E
S113325011278091A0028A3021F40E9468020FBFD6
S11332601EC10FBFFF2009F41AC12FB7F8943327EA
S113327010924109109240091092E20181E080937A
S1133280A0022FBF0E94AE02882309F408C18FB7A1
S1133290F894992729E02093A0028FBF0E94AF01E0
S11332A0FEC05698579810929F021092D301539AD9
S11332B0549A579A8FB7F89499271092A0021092B3
S11332C0D0018FBF1092DF01EAC082E1E6C05398BB
S11332D05498E5C010926201109261018FB7F8947E
S11332E09927F09065018FBF80916601882311F0C2
S11332F053E0F52E00915F01109160018091670108
S1133300882309F0CCC080914101882361F4809125
S11333102202909123028017910729F44F2DB801BE
S113332080E00E94450DFF2019F00E945F0220C03A
S11333303FB7F8942091A102E22FFF27EE0FFF1F61
S1133340EB54FE4F808191810817190771F4822F85
S11333508F5F8093A1028C3010F01092A1028091B3
S1133360DF01882311F01092DF01832F99278FBF8B
S113337080E093C08FB7F894992720916901009158
S11333806A0110916B01D09092018FBF2223A1F5A5
S1133390CFB6F89480918B01882339F5809174011C
S11333A0E82FFF27EE0FFF1FE150FE4FE080F18072
S11333B0118300838F5F809374018C3010F010921E
S11333C074019091740180914409981719F481E073
S11333D080938B0180917C01882351F481E00E94C9
S11333E0880181E080937C0103C00E945F02780120
S11333F08C2D99278FBF87018FB7F894ED2DFF2768
S1133400EE0FFF1FE55CFE4F1183008320915D01E9
S1133410DD2011F02B7F01C02D7F20935D011092E0
S11334206801992748CA2091FD08812F8223C1F0A1
S1133430E92FFF27EE0FFF1FEE5DFD4F4081518105
S113344011821082812F809528232093FD089923CF
S113345039F463E0CA010E94350D110F91E0E3CF06
S11334609F5F9830E0F4110FDECF80914101E82F87
S1133470FF27EE0FFF1FEE5DFD4F6081718141E07C
S11334800E94450D0CC04CE164E079E08FEF9FEFA2
S11334900E941E02882319F087E10E948801A896E1
S11334A00FB6F894DEBF0FBECDBFDF91CF911F9151
S11334B00F91FF90EF90DF90CF9008958091F708DF
S11334C08F3FB1F0282F3327F901EC56FE4F80814E
S11334D08093F7088F3F11F480933E098FEF808328
S11334E02F3F31F0822F0E94521381E090E0089523
S11334F080E090E0089578941F920F920FB60F9297
S113350011242F923F924F925F926F927F928F92EB
S11335109F92AF92BF92CF92DF92EF92FF920F935E
S11335201F932F933F934F935F936F937F938F9347
S11335309F93AF93BF93CF93DF93EF93FF93C6B55E
S1133540D7B58FB7F894282E0E94F4059B012C1B45
S11335503D0B442755272B013C01421A530A640AA8
S1133560750A80915601909157018530910521F09B
S1133570069709F0E0C0BFC086E090E09093570141
S11335808093560131E0332E3092CE0110925801CF
S113359080E00E940D07E091D801F091D90141AA81
S11335A0BB27A72D962D852D80ABC301AA27BB274A
S11335B087A7872D9927AA27BB2786A7E091D8013B
S11335C0F091D90185A5882309F484C060816550F0
S11335D077274F01860E971EF4012081E1808281B6
S11335E0A3809927AA27BB27BA2FA92F982F88270A
S11335F0332744275527522F442733272227FF24D4
S1133600002711278701FF24EE242E293F29402B70
S1133610512BBB24CC24DD242A293B294C295D29A8
S1133620822B932BA42BB52B84199509A609B709D2
S11336308383292F3A2F4B2F552722839D0144271B
S1133640552721838B2F9927AA27BB278083C098CE
S113365024E0A40180E090E00E94CC06C09AF4012A
S11336602081E1808281A3809927AA27BB27BA2FD2
S1133670A92F982F8827332744275527522F4427CB
S113368033272227FF24002711278701FF24EE2454
S11336902E293F29402B512BBB24CC24DD242A295D
S11336A03B294C295D29822B932BA42BB52B840D0C
S11336B0951DA61DB71D8383292F3A2F4B2F552700
S11336C022839D014427552721838B2F9927AA27DD
S11336D0BB278083E091D801F091D901818185FFD6
S11336E002C03092930183E00E94CC0E87B78F7E94
S11336F087BF84997AC01092CE0181E00E940D07A1
S1133700E091D801F091D901818185FF0FC087E054
S113371090E090935701809356010E94F40520E0B5
S113372031E040E050E00E94B10603C080E00E9416
S1133730AA10849B5AC080915801882391F58091E6
S1133740CE01882371F511E01093CE010E940D077C
S113375080B32091F608283098F4E091FB08E20F3A
S1133760FF27E770F070EE0FFF1FEE0FFF1FEE55FF
S1133770F74F40825182628273822F5F2093F60852
S113378010935801D093F601C093F50184992DC08C
S11337909927B4E096958795BA95E1F7182F11709B
S11337A001C010E08091CE018130F9F41092CE0175
S11337B00E940D07109258011123B9F48091F5016C
S11337C09091F601C81BD90B2A9778F48091F608DA
S11337D0882319F081508093F6088091D801909144
S11337E0D901009711F00E9465052FBEFF91EF915A
S11337F0DF91CF91BF91AF919F918F917F916F9105
S11338005F914F913F912F911F910F91FF90EF90F6
S1133810DF90CF90BF90AF909F908F907F906F90EC
S11338205F904F903F902F900F900FBE0F901F907E
S1133830189578941F920F920FB60F9211241F932C
S11338402F933F934F935F936F937F938F939F93A4
S1133850AF93BF93EF93FF9387B78F7E87BF78941F
S11338601FB7F8948091E3019091E401A091E501E0
S1133870B091E6010097A105B10509F051C080910E
S11338805601909157018530910561F1863091057B
S113389030F48330910549F0049781F51AC08730DC
S11338A09105F1F0089751F514C0869B0FC084E090
S11338B090E090935701809356010E94F40527E00D
S11338C030E040E050E00E94B10618C00E94C110F0
S11338D015C00E946F0C882389F40E94EB100EC05F
S11338E080E00AC089E00E94BC0D81E00E940D07BF
S11338F083E00E94CC0E87E00E94AA1080915101BF
S113390090915201019771F482E090E090935201FA
S113391080935101DE98DE9A80E00E94170C02C069
S11339200E941106812F99278FBFFF91EF91BF91BC
S1133930AF919F918F917F916F915F914F913F9143
S11339402F911F910F900FBE0F901F901895FF920B
S11339500F931F93CF93DF93CDB7DEB7E0970FB6E6
S1133960F894DEBF0FBECDBFFFB6F89448E150E037
S11339706FEF70E084E991E00E946D218FEF8093F6
S1133980F70880933E0981E08EBD88E080BF83E024
S113399083BF8CB59DB54AE72CB53DB528173907CB
S11339A008F44150442311F0C901F6CF92B782B70D
S11339B08917E9F32CB53DB592B782B78917E9F3B6
S11339C08CB59DB5821B930B409665E096958795C3
S11339D06A95E1F79093F9088093F80813BE83B7CA
S11339E08EBD8EB580BF12BE1DBC1CBC8FEF86BFC2
S11339F086B780937C0080B7992787709070892B55
S1133A00D1F7D29AD19AD09ADA9AD99AD89A15BA81
S1133A108FEF84BBD498DC981092890010928800B0
S1133A2080917D00846080937D0080918A00887FEE
S1133A30826080938A001DBC1CBC87B7846087BFEA
S1133A408EB5887F84608EBD0E945E1A8823E1F75C
S1133A5082E491E0909348098093470910927101A0
S1133A6012E006E06091F8087091F9088827992718
S1133A705CE0660F771F881F991F5A95D1F720E0E5
S1133A8031EE40E050E00E94E8202150304029B956
S1133A90832F9927809390001BB9009395001AB83F
S1133AA0209399008093980010939B0000939D00AD
S1133AB010929A0084E490E090939A088093990875
S1133AC01092F7011092F9018AE08093A0021092FB
S1133AD0E2011092E8011092FA0810924109109242
S1133AE0400910923A0910922B02109295081092F4
S1133AF0940884E08093D0011092A30210929D0850
S1133B001092D401109227021092260210921902E8
S1133B10109218028FEF8093CD01EDE7F1E08FEF63
S1133B209FEF918380831282339621E0E938F20774
S1133B30C1F70E9474056093290580912E0190912C
S1133B402F010196AA27BB278093DA019093DB010A
S1133B50A093DC01B093DD0180B7886080BF8BE067
S1133B6083BF86EE81BF87B7826087BF0E94BC0493
S1133B7082EC98E090937301809372018E98B89AC6
S1133B808C988FEF8093E7011092A9021092AA02F9
S1133B901092AB021092AC02B89AD69AD59A8FB70B
S1133BA0F894992720913401309135018FBF3093D7
S1133BB0EE012093ED010E94200729A73AA74BA705
S1133BC05CA76DA77EA78FA798ABDE019196FE0137
S1133BD0B99688E001900D928150E1F7DE0151968B
S1133BE0FE01B19688E001900D928150E1F7DE016B
S1133BF05996FE01719688E001900D928150E1F78B
S1133C00AFEAB2E0FE01799688E001900D9281500E
S1133C10E1F78091360199279093D6018093D501DD
S1133C208FE18093A4028AE1809327050E942007F4
S1133C3029A73AA74BA75CA76DA77EA78FA798AB28
S1133C40DE019196FE01B99688E001900D928150B3
S1133C50E1F7DE011196FE01B19688E001900D9224
S1133C608150E1F7DE011996FE01319688E001905A
S1133C700D928150E1F7AFEAB2E0FE01399688E097
S1133C8001900D928150E1F7AFEAB2E0FD01379661
S1133C909C9180818D939083319782E0E23BF80779
S1133CA0B9F781E08093B201109201098093D701A2
S1133CB01092AE020E945E1A8823E1F78F2D992795
S1133CC08FBF7894E5EBF1E084E296E081939193E1
S1133CD0C49621E0ED3CF207C9F71092A1021092BC
S1133CE08C011092FC0881E08093DF01EFEFF1E09A
S1133CF087EB92E081939193C49622E0E731F20737
S1133D00C9F7109244091092740110927C0181E069
S1133D1080938B0161E00E9406038823E9F48FB746
S1133D20F894282F33278091510190915201892BC7
S1133D3011F02FBF1BC081E090E09093520180935B
S1133D4051012FBFDD9A0E94F40524E130E040E0E8
S1133D5050E00E94B1060AC062E081E00E942003A4
S1133D60882321F461E081E00E9420038FB7F89456
S1133D70282F3327922F8091A0028A3031F080912E
S1133D80D001843011F02FBF04C09FBF80E10E9496
S1133D9088018FB7F894482F55274BC087B79927C8
S1133DA083709070892B19F4E5E0F0E013C080B7BC
S1133DB0992787709070892BD1F781B792B7891BA7
S1133DC08C3030F082B7853F18F4E3E0F0E002C0B5
S1133DD0E2E0F0E087B7887BC1F480917D008B7FBF
S1133DE0A1F46E9912C08AB190919A00892B8871BE
S1133DF061F48091740082FD08C0379B03C081E0A8
S1133E0090E005C085E090E002C080E090E025B736
S1133E108E1708F4E82FFF27E454FD4FE491237E26
S1133E202062E22BE5BF78948895F89485B78F7D5E
S1133E3085BF8091F7088F3F09F4B0CF282F33272F
S1133E40F901EC56FE4F80818093F7088F3F11F4FF
S1133E5080933E098FEF80832F3F09F49FCF4FBF9C
S1133E60822F0E94521395CFACE2B0E0EAE3FFE167
S1133E700C942921222E332E442E552E662E772E75
S1133E80882E992EFE013196A8E01192AA95E9F7A1
S1133E9029823A824B825C826D827E828F829886EE
S1133EA0FE013996B8E01192BA95E9F7A986BA8667
S1133EB0CB86DC86ED86FE860F87188B89819A81F6
S1133EC0AB81BC8189A79AA7ABA7BCA77C018D0154
S1133ED08FEF9FEFA0E0B0E0E822F9220A231B2332
S1133EE089A59AA5ABA5BCA51D01442455248985A3
S1133EF09A85AB85BC858DA39EA3AFA3B8A75C01AF
S1133F006D018FEF9FEFA0E0B0E0A822B922CA2292
S1133F10DB228DA19EA1AFA1B8A53D0188249924DF
S1133F20C801B701A60195010E940A2169A37AA3D9
S1133F308BA39CA3C801B701A40193010E940A2189
S1133F407B018C01C201B101A60195010E940A21E5
S1133F505B016C01C201B101A40193010E940A2119
S1133F603B014C01EA0CFB1C0C1D1D1D89A19AA1EF
S1133F70ABA1BCA19D01442755272E0D3F1D401F19
S1133F80511F2A153B054C055D0540F480E090E087
S1133F90A1E0B0E0680E791E8A1E9B1ECA01AA2702
S1133FA0BB27860D971DA81DB91D8D8F9E8FAF8FC2
S1133FB0B8A3A9013327222789A19AA1ABA1BCA147
S1133FC0A070B070280F391F4A1F5B1F298F3A8FCA
S1133FD04B8F5C8FA98CBA8CCB8CDC8CED8CFE8CDB
S1133FE00F8D18A1FE01719698E011929A95E9F748
S1133FF0ED8AFE8A0F8B188F2D813E814F81588563
S11340006DA17EA18FA198A50E940A213B014C01BC
S11340102D853E854F85588969A57AA58BA59CA5D4
S11340200E940A212D893E894F89588D260F371FFA
S1134030481F591F260D371D481D591D2D8B3E8BBA
S11340404F8B588F6D887E888F88988C2A2D3B2DB6
S11340504C2D5D2D662D772D882D992DE2E1AC96A2
S11340600C944521A0E1B0E0E8E3F0E20C942921AE
S1134070222E332E442E552E662E772E882E992EE0
S1134080002309F466C088E0FE01319611928A95F6
S1134090E9F729833A834B835C836D837E838F8224
S11340A09887E0E2E01B1E16CCF52D813E814F81FE
S11340B05885602F772767FD7095DA01C901062EB0
S11340C004C0B695A795979587950A94D2F78D87DE
S11340D09E87AF87B88B04C0220F331F441F551F20
S11340E0EA95D2F789819A81AB81BC8104C0B695E7
S11340F0A795979587956A95D2F7282B392B4A2B44
S11341005B2B29873A874B875C8729843A844B84C5
S11341105C846D847E848F8498881BC01D861E8673
S11341201F86188A2E2F332727FD30953095219529
S11341303F4F8D819E81AF81B88504C0B695A79508
S1134140979587952A95D2F789879A87AB87BC87F5
S1134150DCCF222D332D442D552D662D772D882D22
S1134160992DE2E160960C944521991B79E004C0F5
S1134170991F961708F0961B881F7A95C9F78095A2
S11341800895AA1BBB1B51E107C0AA1FBB1FA6179A
S1134190B70710F0A61BB70B881F991F5A95A9F7EC
S11341A080959095BC01CD01089597FB092E0726B3
S11341B00AD077FD04D0E5DF06D000201AF470950C
S11341C061957F4F0895F6F7909581959F4F0895D7
S11341D0A1E21A2EAA1BBB1BFD010DC0AA1FBB1F07
S11341E0EE1FFF1FA217B307E407F50720F0A21B79
S11341F0B30BE40BF50B661F771F881F991F1A94E6
S113420069F760957095809590959B01AC01BD010F
S1134210CF010895629FD001739FF001829FE00D4A
S1134220F11D649FE00DF11D929FF00D839FF00D31
S1134230749FF00D659FF00D9927729FB00DE11DDD
S1134240F91F639FB00DE11DF91FBD01CF011124BA
S113425008952F923F924F925F926F927F928F9226
S11342609F92AF92BF92CF92DF92EF92FF920F9301
S11342701F93CF93DF93CDB7DEB7CA1BDB0B0FB60B
S1134280F894DEBF0FBECDBF09942A8839884888C8
S11342905F846E847D848C849B84AA84B984C8845E
S11342A0DF80EE80FD800C811B81AA81B981CE0F55
S11342B0D11D0FB6F894DEBF0FBECDBFED0108953A
S11342C0FB01DC0104C08D910190801921F441505F
S11342D05040C8F7881B990B0895DC0101C06D9309
S11342E041505040E0F70895A2E0B0E0EAE7F1E27F
S11342F00C943921FE01379661917191FA83E98317
S1134300AF0180914709909148090E948B21E2E016
S113431022960C945521ABE0B0E0E1E9F1E20C9473
S11343202B213C014B016A01FC0117821682838117
S113433081FD03C08FEF9FEFDAC1F3013381F401F4
S113434033FD859133FF81914F01882309F4CCC15A
S1134350853239F433FD859133FF81914F018532E4
S113436029F4B30199270E949123E7CF00E0442464
S113437055244AE00032B0F48B3269F08C3228F4D0
S1134380803251F0833271F40BC08D3239F08033B6
S113439049F4016028C00260046025C0086023C09D
S11343A0006121C007FD29C0282F20532A3078F44A
S11343B006FF06C0549EC0011124522E580E13C08D
S11343C0449EC0011124422E480E00620CC08E325D
S11343D021F406FD89C1006406C08C3611F400681E
S11343E002C0883651F4F40133FD859133FF819185
S11343F04F01882309F46FC0BDCF982F85548330B3
S113440018F08052833038F424E030E0C20ED31E1A
S11344108FE389830FC0933631F0933799F0933546
S113442009F05BC023C0F6018081898322E030E07B
S1134430C20ED31E7E010894E11CF11C51E0A52E8E
S1134440B12C12C0F601E080F18006FD03C06FEFCD
S11344507FEF02C0652D772722E030E0C20ED31E25
S1134460C7010E9486235C010F7713C0F601E08028
S1134470F18006FD03C06FEF7FEF02C0652D772743
S113448022E030E0C20ED31EC7010E947B235C01F0
S1134490006803FF07C01BC0B30180E290E00E94E4
S11344A091234A94842D9927A816B906A8F30FC01E
S11344B0F70107FD859107FF81917F01B3019927DA
S11344C00E94912341104A940894A108B108A114B0
S11344D0B10471F706C190E03EC0943611F09936EC
S11344E091F507FF0AC0F601608171818281938191
S11344F024E030E0C20ED31E0DC0F601808191810C
S11345009C01B901882777FD8095982F42E050E0FF
S1134510C40ED51E4FE6B42EB02297FF09C0909565
S11345208095709561957F4F8F4F9F4F50E8B52AC6
S11345308E010F5F1F4F2AE030E0A8010E94BE23C6
S1134540A82EA01A4DC0953731F43FEEF32EF02279
S11345502AE030E023C029EFF22EF0229F3661F0EA
S1134560903720F4983509F0BFC012C0903739F065
S1134570983709F0B9C005C028E030E00FC080E1E9
S1134580F82AF4FE02C094E0F92A20E130E006C0E3
S1134590F4FE02C0E6E0FE2A20E132E0F7FE0AC0A3
S11345A0F601608171818281938144E050E0C40E00
S11345B0D51E0BC0F60180819181AC01BA01882718
S11345C09927E2E0F0E0CE0EDF1E8E010F5F1F4F51
S11345D0A8010E94BE23A82EA01A8FE7B82EBF20E0
S11345E0B6FE10C0FEEFBF22A51460F42B2D3327B6
S11345F024FF1AC022FF02C0052D09C02FEEB222EB
S1134600052D01C00A2D2B2D332724FF0EC0FE01DA
S1134610EA0DF11D8081803319F439EEB32209C00B
S11346200F5F22FF06C004C0052D822F867809F093
S11346300F5FEB2CFF24E3FC14C0E0FE0FC0041555
S113464010F05A2C0BC0542C501A5A0C042D06C0CE
S1134650B30180E290E00E9491230F5F0415C0F340
S113466004C0041510F4401A01C04424E4FE10C030
S1134670B30180E390E00E949123E2FE1EC0E1FEBC
S113468003C088E590E002C088E790E0B3010CC065
S11346908E2D867891F0E1FE02C08BE201C080E2AB
S11346A0B7FC8DE2B30199270E94912306C0B301A0
S11346B080E390E00E9491235A94A514C0F3AA9435
S11346C0FE01EA0DF11D8181B30199270E94912316
S11346D0AA2039F0F4CFB30180E290E00E94912344
S11346E04A944420C1F729CEF30186819781E0E101
S11346F02B960C944721FC010590615070400110E9
S1134700D8F7809590958E0F9F1F0895FC016150F6
S1134710704001900110D8F7809590958E0F9F1FDF
S113472008950F931F93CF93DF938C01EB018B813B
S1134730992781FF1BC082FF0DC02E813F818C8190
S11347409D812817390764F4E881F9810193F9837D
S1134750E88306C0E885F985802F0995892B31F413
S11347608E819F8101969F838E8302C00FEF1FEF7E
S1134770C801DF91CF911F910F910895FA01AA27E3
S1134780283051F1203181F1E8946F936E7F6E5F90
S11347907F4F8F4F9F4FAF4FB1E03ED0B4E03CD03E
S11347A0670F781F891F9A1FA11D680F791F8A1F21
S11347B0911DA11D6A0F711D811D911DA11D20D088
S11347C009F468943F912AE0269F11243019305D42
S11347D03193DEF6CF010895462F4770405D419333
S11347E0B3E00FD0C9F7F6CF462F4F70405D4A3380
S11347F018F0495D31FD4052419302D0A9F7EACF48
S1134800B4E0A6959795879577956795BA95C9F776
S113481000976105710508959B01AC010A2E069469
S11348205795479537952795BA95C9F7620F731F22
S10D4830841F951FA01D0895FFCFFB
S113483A54686520525353492076616C7565206625
S113484A726F6D207468652073656E736F72206D64
S113485A6F74652069733A203D2025640A000100BB
S113486AFFFFFFFF010022FFFFFFFF350269023548
S113487A020100000002000000008B0D000000008D
S9030000FC
