S01800006275696C642F6D6963617A2F6D61696E2E73726563E5
S11300000C9465010C94C8070C94D2070C94DC077B
S11300100C94E6070C94F0070C94FA070C94FA0E6F
S11300200C9404080C9484010C9484010C94FF2215
S11300300C9448140C9492070C94A8070C94AB0CE1
S11300400C9481070C947C160C94CB090C948401B9
S11300500C94470A0C94390C0C9484010C9484017C
S11300600C949D070C949A0B0C94790B0C94840BB0
S11300700C948F0B0C94AD0B0C945C0B0C948401BE
S11300800C946E0B0C9484010C94840116176C1759
S11300907217CB17E817F0172918ED18101924193F
S11300A0661C991C191D03176E1D7C1D941DE51DEE
S11300B0301E641E481F5C1F5E1F611FB11F0C179A
S11300C02D203B2000002110422063308440A550A5
S11300D0C660E770088129914AA16BB18CC1ADD18A
S11300E0CEE1EFF13112100273325222B552944232
S11300F0F772D662399318837BB35AA3BDD39CC3DA
S1130100FFF3DEE36224433420040114E664C7747D
S1130110A44485546AA54BB528850995EEE5CFF529
S1130120ACC58DD55336722611163006D776F666D1
S11301309556B4465BB77AA719973887DFF7FEE779
S11301409DD7BCC7C448E5588668A778400861189D
S113015002282338CCC9EDD98EE9AFF948896999C9
S11301600AA92BB9F55AD44AB77A966A711A500A71
S1130170333A122AFDDBDCCBBFFB9EEB799B588B19
S11301803BBB1AABA66C877CE44CC55C222C033CBD
S1130190600C411CAEED8FFDECCDCDDD2AAD0BBD69
S11301A0688D499D977EB66ED55EF44E133E322E11
S11301B0511E700E9FFFBEEFDDDFFCCF1BBF3AAFB9
S11301C0599F788F8891A981CAB1EBA10CD12DC117
S11301D04EF16FE18010A100C230E32004502540AD
S11301E046706760B9839893FBA3DAB33DC31CD30D
S11301F07FE35EF3B1029012F322D23235421452FD
S113020077625672EAB5CBA5A89589856EF54FE558
S11302102CD50DC5E234C324A0148104667447644C
S113022024540544DBA7FAB79987B8975FE77EF7AC
S11302301DC73CD7D326F2369106B016576676769C
S1130240154634564CD96DC90EF92FE9C899E98978
S11302508AB9ABA94458654806782768C018E108EC
S11302608238A3287DCB5CDB3FEB1EFBF98BD89B4C
S1130270BBAB9ABB754A545A376A167AF10AD01A3C
S1130280B32A923A2EFD0FED6CDD4DCDAABD8BAD98
S1130290E89DC98D267C076C645C454CA23C832C8C
S11302A0E01CC10C1FEF3EFF5DCF7CDF9BAFBABFEC
S11302B0D98FF89F176E367E554E745E932EB23EDC
S11302C0D10EF01E00081C18141011241FBECFEF0D
S11302D0D0E1DEBFCDBF11E0A0E0B1E0ECEBFDE486
S11302E000E00BBF02C007900D92A632B107D9F708
S11302F019E0A6E2B1E001C01D92A23FB107E1F707
S11303000E948D200C94DD260C9400008FB7F89485
S1130310992708958FBF0895282F9FB7F894E82F41
S1130320FF27EA56FE4F80818F3F81F4E091E40974
S1130330E21771F40BC02093980904C0FF27EA5612
S1130340FE4F20832093E40920E007C025E005C088
S1130350809198098F3F91F7EECF892F99278FBF0E
S1130360822F992708951F931FB7F8948091DE096F
S1130370882341F483E10E948C01882319F481E0ED
S11303808093DE09812F99278FBF1F910895382FFD
S1130390FA01422F2D3118F082E090E0089566832F
S11303A0872F992785833387218780913F019091F7
S11303B04001892B19F085E090E008952FB7F89457
S11303C0332785E08093420110924301F0933E016C
S11303D0E0933D0182E090E09093400180933F01DF
S11303E01092450110924401445F409341012FBF94
S11303F08FB7F894282F3327809132038A3011F471
S11304002FBF19C02FBF9FB7F89480917E02882315
S113041011F020E006C081E080937E0210927F02FA
S113042021E0892F99278FBF222329F00E94B3014D
S113043080E090E008951092400110923F0181E025
S113044090E00895CF93DF93DB01FB013596818320
S1130450892F9927EB018D8384E686838091610936
S113046090916209892B19F085E090E029C070937E
S1130470620960936109448380911701882319F408
S113048080E090E01DC08681EB016D817727762F97
S1130490662721813327622B732B10921701242F97
S11304A0AD010E94C7019927282F882339F081E0E4
S11304B0809317011092620910926109822F992783
S11304C0DF91CF9108958FB7F89499272BB331E03A
S11304D023272BBB8FBF0895809132038A3021F4E8
S11304E08091FC01843021F081E080933A010895E9
S11304F085E10E948C0110923A0108952FB7F89477
S113050033278CB95E9A2FBF0895FC0161157105DC
S113051019F481E090E00895809176029091770239
S1130520892B19F085E090E0089570933B0960935E
S11305303A09F0937702E093760210922202109225
S1130540210281E0809323025E9A569A808121E001
S113055030E030932202209321020E947E0280E048
S113056090E008958FB7F894992720914B012E7F3E
S113057020934B012EE72093B5018FBF61E070E01B
S113058085EB91E00E94850299270895FC01828100
S11305909927582F442781819927482B592BCA0121
S11305A0892F99278695869583709070823091055E
S11305B059F08330910559F0892B19F420E030E08B
S11305C008C02CE93FEF05C022E030E002C028E07B
S11305D030E0CA0184E0989F812D9927112482304C
S11305E0910559F08330910559F0892B19F480E075
S11305F090E008C08CE99FEF05C082E090E002C063
S113060088E090E0280F391F2A5F3F4FCF01820F07
S1130610931F0895282F9FB7F894662349F0E82F75
S1130620FF27E55CFC4F8081882311F021E006C0A0
S1130630E22FFF27E55CFC4F608320E0892F992798
S11306408FBF822F99270895E82F8FB7F894282F0A
S1130650332790E0FF27E55CFC4F8081861709F47F
S113066091E02FBF892F99270895882311F06E9A5E
S113067008956E980895882311F06F9A08956F98DD
S1130680089580E00E943503BA9ABB98B99AB89A43
S11306906C9A80E00E943B036B986A9881E00E9408
S11306A03503709A8DB18C7F8DB908950F931F9384
S11306B0182F0FB7F89461E080E00E940A038823A2
S11306C071F510930401809107018823A9F58091A5
S11306D03101823089F586E00CC00E94410380918B
S11306E03101882349F481E0809331011092DF01C4
S11306F088E00E948C012AC080916C028F3F31F502
S1130700E0910601EE2311F11CC01092050104C012
S1130710FF27E459FD4F10821092060117C081E0B3
S113072090E002C0880F991F1A95E2F720913001DA
S1130730282B209330010AC0809131018823E1F6EF
S1130740CCCF809105018F3F19F7DFCF802F9927F8
S11307508FBF80E090E01F910F9108951F93182F91
S113076081E00E9435031FB9779BFECF8FB1992793
S11307701F9108958F929F92AF92BF92CF92DF9272
S1130780EF92FF920F931F93CF93DF938FB7F89459
S11307909927C090A609D090A70980902D03909026
S11307A02E03C091A602D091A7022091530130914B
S11307B05401EAE0AE2EB12CAC0EBD1E2A153B0549
S11307C008F459018FBF7401EC0EFD1E86010C0F55
S11307D01D1F14C0C114D10419F0F801808101C097
S11307E080E00E94AE038114910411F0F70180832C
S11307F021960894E11CF11C0F5F1F4FC50101975E
S1130800C817D90738F381E00E943B039FB7F894D7
S1130810C114D10431F0CC0EDD1EF60180818FB9F4
S113082001C01FB8D093A702C093A602892F9927AD
S11308308FBF80E090E0DF91CF911F910F91FF90E7
S1130840EF90DF90CF90BF90AF909F908F900895DE
S11308502FB7F89433275093540140935301909346
S1130860A7098093A60970932E0360932D03109219
S1130870A7021092A6022FBF452B29F08FB10E9428
S1130880BA039927089587E00E948C0180E090E0E4
S113089008958FB7F894992710923D038FBF089558
S11308A08FB7F89499272BB334E023272BBB8FBF42
S11308B008958FB7F89499272BB332E023272BBBE5
S11308C08FBF089580919C09882319F02FE170E06F
S11308D002C078E02EE1622FEFB7F8948091B8015E
S11308E08E7F8093B80187B1982F9F7182958695EA
S11308F08695837019F080E090E012C0822F8850B2
S1130900863118F081E090E00BC040E050E03327DE
S1130910892F99272817390711F441E050E0CA01BB
S1130920982F9170990F8091B8018178262F2F719B
S1130930422F440F440F892B842B8093B801332713
S113094027B9783059F58091990990919A0921E055
S11309508638920718F087E090E01FC0833C910529
S113096018F086E090E019C08136910518F085E012
S113097090E013C08033910518F084E090E00DC03E
S11309808831910518F083E090E007C00C9718F0C7
S113099082E090E002C080E090E0782F7770887D5C
S11309A0872B886D992786B98E2F99278FBF089535
S11309B0662319F40E94590402C00E945004109244
S11309C0EA0908957FB7F89462B7209156013091EF
S11309D05701409158015091590106B601FE0FC0CC
S11309E081B792B7280F311D411D511D2F5F3F4F15
S11309F04F4F5F4F290F311D411D511D04C0260F5C
S1130A00311D411D511D872F99278FBFCA01B9017F
S1130A100895DF92EF92FF920F931F938FB7F8948C
S1130A20282F3327D22E91B782B746B7981711F0E3
S1130A3041FF02C02FBF6AC080919D028823E1F16B
S1130A400E94E204E0903703F090380300913903E8
S1130A5010913A0320916B0130916C0140916D012A
S1130A6050916E016E197F09800B910B6217730709
S1130A708407950720F010929D0271E01EC02E0D90
S1130A803F1D401F511F8091560190915701A09125
S1130A905801B0915901281B390B4A0B5B0B273EB7
S1130AA031054105510540F4822F223010F070E0E9
S1130AB005C070E082E002C070E086EE682F6150ED
S1130AC000B601FCFDCF82B7681709F46F5F20916F
S1130AD05601309157014091580150915901DA0162
S1130AE0C9010196A11DB11D860F911DA11DB11D46
S1130AF082179307A407B50710F4622F609561BFAE
S1130B00DFBE772319F08AE00E948C011F910F91B8
S1130B10FF90EF90DF900895AFB7F894BB27E1E022
S1130B20E0939D02609337037093380380933903F5
S1130B3090933A0320936B0130936C0140936D01C1
S1130B4050936E01AFBF0E9409050895DF92EF92A2
S1130B50FF920F931F93D82E7A018B010E94E20417
S1130B6029E0D29EF0011124ED54FD4F608371837E
S1130B7082839383E482F5820683178380858E7F44
S1130B80826080878BE00E948C011F910F91FF90FF
S1130B90EF90DF90089580E880936F011092FB013D
S1130BA010929D09109297091092BA010895CF935B
S1130BB0DF93FC0115A6DC019E96ED011B821A82CF
S1130BC0198280E886A7DF91CF9108952F923F92F2
S1130BD04F925F926F927F928F929F92AF92BF9249
S1130BE0CF92DF92EF92FF920F931F93CF93DF93F5
S1130BF0CDB7DEB728970FB6F894DEBF0FBECDBFD2
S1130C0020902A0230902B0240902C0250902D020A
S1130C10662477248824BEE4AB2EA3E8BA2ECC2421
S1130C20DD24EE24FF2400E010E0222D332D442D9A
S1130C30552D662D772D882D90E00E949D242983C3
S1130C403A834B835C836D837E838F839887822E64
S1130C50932EA42EB52E2401350100E20E949B257B
S1130C60A22EB32EC42ED52EC301B201969587951C
S1130C70779567956A0D7B1D8C1D9D1D97FF05C09B
S1130C809F776F5F7F4F8F4F9F4F60932A027093C0
S1130C902B0280932C0290932D0228960FB6F89481
S1130CA0DEBF0FBECDBFDF91CF911F910F91FF909B
S1130CB0EF90DF90CF90BF90AF909F908F907F90F8
S1130CC06F905F904F903F902F9008958FB7F89456
S1130CD06091AA027091AB022CB53DB506B602FE36
S1130CE004C06F5F7F4F2CB53DB599278FBF882710
S1130CF09927CB017727662744275527622B732B27
S1130D00842B952B0895EF92FF920F931F930E94CB
S1130D1066067B018C0120916E0230916F02409136
S1130D207002509171028091680290916902A091C1
S1130D306A02B0916B02820F931FA41FB51FE216C3
S1130D40F3060407150730F082179307A407B507C5
S1130D5058F005C082179307A407B507E0F5E81615
S1130D60F9060A071B07B8F59C01AD012E193F09C6
S1130D70400B510B213060E8360760E0460760E025
S1130D80560768F180E090E8A0E0B0E0E80EF91EB4
S1130D900A1F1B1FE0926E02F0926F020093700212
S1130DA01093710280E090E8AFEFBFEFE80EF91EF8
S1130DB00A1F1B1F205030484040504020936802B7
S1130DC03093690240936A0250936B0220E030E84A
S1130DD040E050E014C020E030E040E050E0809378
S1130DE06E0290936F02A0937002B09371021092FE
S1130DF068021092690210926A0210926B02A901B1
S1130E00B7012CB53DB5C9018E199F090396841706
S1130E10950720F0B9016D5F7F4F02C0640F751F05
S1130E206115710511F461E070E0615070407BBDA3
S1130E306ABD80E186BF87B7806187BF1F910F912C
S1130E40FF90EF9008950F931F930FB7F894112715
S1130E5060936E0270936F0280937002909371029C
S1130E60209368023093690240936A0250936B02A4
S1130E700E9483060FBF1F910F91089597B79F7D1E
S1130E8097BF90E296BF882319F08EB5806402C0A4
S1130E908EB58F7B8EBD87B7806287BF80E090E080
S1130EA00895AF92BF92CF92DF92EF92FF920F9389
S1130EB01F93CF93DF93CDB7DEB728970FB6F8947F
S1130EC0DEBF0FBECDBF20E070E0E0910001F091E5
S1130ED0010132E14DE65CE46FE4809101019E2F53
S1130EE028960FB6F894DEBF0FBECDBFDF91CF9129
S1130EF01F910F91FF90EF90DF90CF90BF90AF9034
S1130F0008951F920F920FB60F9211248F9383B7F7
S1130F1083BF00B600FCFDCF8F910F900FBE0F90E2
S1130F201F90189578941F920F920FB60F92112468
S1130F300F900FBE0F901F90189578941F920F92E8
S1130F400FB60F9211240F900FBE0F901F9018959B
S1130F5078941F920F920FB60F9211242F933F9300
S1130F608F939F932FB7F89433278091AA0290917F
S1130F70AB0201969093AB028093AA022FBF9F917C
S1130F808F913F912F910F900FBE0F901F90189546
S1130F901F920F920FB60F9211240F900FBE0F9055
S1130FA01F9018951F920F920FB60F9211240F9055
S1130FB00FBE0F901F9018951F920F920FB60F92AD
S1130FC011240F900FBE0F901F9018951F920F922F
S1130FD00FB60F9211240F900FBE0F901F9018950B
S1130FE01F920F920FB60F9211240F900FBE0F9005
S1130FF01F9018951F920F920FB60F9211240F9005
S11310000FBE0F901F9018951F920F920FB60F925C
S113101011240F900FBE0F901F901895E4ECF0E090
S11310206927660FF11DE60FF11DC895982F802DD5
S11310303196C89590250895982F8091460188236C
S113104089F5992379F531E03093460180911001B7
S11310508093470120913B01822F817080939401FA
S11310608091150190911601909349018093480154
S113107080913C0180934A0132273170267EE32F10
S1131080FF27EE0FFF1FEF5EFE4F8081918190934B
S1131090160180931501232B20933B0188E10E94C4
S11310A08C01089580913B0180FF02C08B7F01C0B9
S11310B08D7F80933B0108950F931F93082F162F64
S11310C08091FC018130D9F0813038F0823009F40C
S11310D04AC0833009F028C159C0002309F458C11B
S11310E010923409109233091092350310923C097E
S11310F0109224021092AD021092AC0239C1002366
S113110009F046C18091AC029091AD020E940E0894
S11311109093AD028093AC0282E08093FC01109323
S11311203C09143409F000C125C18695869503C095
S113113080913B018695817009F0F6C080913B0156
S1131140992311F0846001C0826080933B018091F7
S11311503B01877E886080933B0110923C018FEFB6
S11311608093100115C1002309F0DEC060932402AE
S11311708091AC029091AD020E940E089093AD0252
S11311808093AC0283E08093FC0102C1809135031B
S11311908F3F09F4C9C0002309F461C0823008F408
S11311A0C3C0E0913309EE2309F4EBC04E2F415044
S11311B0E42FFF27ED5CF64F82819927382F2227F1
S11311C0442311F4E2E002C0E42FE150FF27ED5C78
S11311D0F64F82819927282B392B8091AC0290916C
S11311E0AD022817390709F09FC080E00E941C084F
S11311F03091240280919E0220919F02982F9F5F3C
S1131200963008F090E0921771F0E82FFF27E2562D
S1131210FD4F32838F5F80939E02863010F01092D0
S11312209E020E94B301109234091092330994E093
S11312309093FC011092350310923C091092240201
S11312401092AD021092AC0280914B018D7F80937D
S11312504B0180913A01882309F49AC084C08230FA
S113126008F44EC0E0913409FF27ED5CF64F82810B
S1131270482F5527342F20913B01822F8695869540
S11312808695837099278130910519F00297F9F4B6
S11312900EC0277E206120933B01442311F485E096
S11312A001C080E080933C013093100110C0809114
S11312B03C01843360F4E0911501F0911601E80FCC
S11312C0F11D408380913C018F5F80933C018091AC
S11312D03409E82FFF27ED5CF64F62818F5F80931E
S11312E03409833010F01092340977278091AC02CE
S11312F09091AD020E940E089093AD028093AC02CF
S113130080913309E82FFF27ED5CF64F12838F5F3E
S113131080933309833010F01092330980913503A0
S11313208F5F8093350334C01092340910923309CF
S113133014E01093FC011092350310923C091092B2
S113134024021092AD021092AC0280914B018D7F69
S113135080934B0181E00E941C0880913A0188230C
S113136029F01093FC010E946C0212C0002381F04A
S113137081E009CF80913B01982F917080FDD5CEFB
S1131380D7CE809137099927382F222742E01CCFE6
S11313901F910F9108951F920F920FB60F9211246F
S11313A02F933F934F935F936F937F938F939F9369
S11313B0AF93BF93EF93FF935F9B3DC06CB1E091FC
S11313C0AE02F091AF023097F9F08091DC09909170
S11313D0DD09E80FF91F608301969093DD0980937E
S11313E0DC092091E8093091E9098217930718F183
S11313F01092AF021092AE0280912F038330D9F085
S1131400579810922F0317C06E3719F460E081E0EB
S113141010C080914B016D3721F4826080934B01A1
S11314200AC081FF05C08D7F80934B0180E268274D
S113143080E00E945C08FF91EF91BF91AF919F9172
S11314408F917F916F915F914F913F912F910F9069
S11314500FBE0F901F901895982F8D57823068F407
S113146080914B01816080934B0180E289278093B6
S113147034038DE78093B50102C09093B50161E018
S113148070E085EB91E00E94850299270895789495
S11314901F920F920FB60F921124FF920F931F9376
S11314A02F933F934F935F936F937F938F939F9368
S11314B0AF93BF93CF93DF93EF93FF9320912102D8
S11314C03091220280913A0990913B0928173907FB
S11314D080F4E0917602F0917702E20FF31F8081AD
S11314E02F5F3F4F30932202209321020E947E02FD
S11314F0CDC0109277021092760210922302569871
S1131500FFB6F89480914B0180FF0EC08E7F8093CC
S11315104B01809134038093B50161E070E085EB69
S113152091E00E948502AFC080913203843009F4B7
S11315308CC0853040F4823021F18330B8F581309D
S113154009F09CC00DC0863009F48DC0863008F4C3
S113155083C0873009F48EC0883009F08FC091C0F1
S113156080916D020E942C0A082F83E0809332033D
S113157060916D028091E6099091E7090E940E083E
S113158010C080919B090E942C0A082F83E080934D
S1131590320360919B098091E6099091E7090E94CA
S11315A00E089093E7098093E60966C0E091B102C2
S11315B0FF27EE0FFF1FE358FD4F80810E942C0A86
S11315C0082F1091B102C12FDD27FE01EE0FFF1F7E
S11315D0E358FD4F60818091E6099091E7090E94EC
S11315E00E089093E7098093E609209167022F5F24
S11315F020936702113039F580914201E0913D0159
S1131600F0913E01E80FF11DE0818F5F809342016C
S113161090914101981730F482E080937E0240E07B
S113162050E002C04E2F5527DE01AA0FBB1FFD015B
S1131630E458FD4F8081823031F02F3F21F0A358D0
S1131640BD4F4C9319C084E012C08091E6090E94FA
S11316502C0A082F85E00BC08091E7090E942C0A10
S1131660082F86E004C00E94B202082F87E080930E
S1131670320302C088E003C0002329F089E080938C
S113168032030E94B3018F2D99278FBFFF91EF91F1
S1131690DF91CF91BF91AF919F918F917F916F9186
S11316A05F914F913F912F911F910F91FF900F9058
S11316B00FBE0F901F9018951F920F920FB60F92A6
S11316C011248F9380919B0087FF02C080919C001E
S11316D08F910F900FBE0F901F90189578941F92C2
S11316E00F920FB60F9211240F900FBE0F901F9000
S11316F0189578941F920F920FB60F9211240F90A1
S11317000FBE0F901F90189578941F920F920FB6EA
S11317100F9211240F900FBE0F901F90189578947C
S11317201F920F920FB60F9211240F900FBE0F90BD
S11317301F90189578941F920F920FB60F92112450
S11317408F939F9380918000909181009F918F91BE
S11317500F900FBE0F901F90189578941F920F92C0
S11317600FB60F9211242F933F938F939F932FB70C
S1131770F8943327809164029091650201969093C6
S11317806502809364022FBF9F918F913F912F91A7
S11317900F900FBE0F901F90189580914E018C31C1
S11317A018F04CE150E002C0482F55278CE1E4EBDF
S11317B0F9E011928A95E9F790914E0180914C01DC
S11317C020E030E0A4EBB9E00FC0E82FFF27E75397
S11317D0FA4FE081992329F08F5F8A3F09F480E072
S11317E09150ED932F5F3F4F2417350771F7909376
S11317F04E0180934C014CE168EA79E08FEF9FEF52
S11318000E942202882319F08BE10E948C01089522
S11318101F93182F80914F01882349F480914E0122
S11318208D3728F081E080934F010E94CD0B8FB754
S1131830F894282F332790914E019A3FA8F4809171
S11318404D01E82FFF27E753FA4F10838F5F8093F2
S11318504D018A3F11F410924D019F5F90934E0108
S11318602FBF80E090E003C02FBF8FEF9FEF1F9149
S113187008951F920F920FB60F9211242F933F9346
S11318804F935F936F937F938F939F93AF93BF9384
S1131890EF93FF9344B155B178948FB7F894992797
S11318A02091B801322F3695317021708FBF2223D9
S11318B0D9F4339880918002813021F0823009F08C
S11318C039C00AC0332351F050933103409330039D
S11318D080E10E948C012EC0332319F40E9462041B
S11318E029C01092800226C08FB7F89499278FBF21
S11318F02FB7F894332786B1582F5770482F40726A
S1131900987D942B952B8074977B982B90619F776F
S1131910892F992786B9887D842B852B87738061CD
S1131920992786B9887D842B852B877B80699927A5
S113193086B92FBFFF91EF91BF91AF919F918F9186
S11319407F916F915F914F913F912F910F900FBEB7
S11319500F901F9018951F920F920FB60F9211249B
S11319602F933F934F935F936F937F938F939F93A3
S1131970AF93BF93EF93FF9383B783BF00B600FC8D
S1131980FDCF81B799270196AA27BB27209156013D
S1131990309157014091580150915901280F391F36
S11319A04A1F5B1F209356013093570140935801FF
S11319B05093590178940E940905FF91EF91BF91CA
S11319C0AF919F918F917F916F915F914F913F91D3
S11319D02F910F900FBE0F901F9018958FB7F8940A
S11319E0282F332780914F01813021F42FBF80E0CD
S11319F090E0089590E080914E01882309F491E0ED
S1131A00992321F02FBF81E090E0089581E0809335
S1131A104F012FBF0E94CD0B80E090E008950F93FB
S1131A201F93CF93DF93182F8FB7F894C82FDD2718
S1131A300C2F61E080E00E940A03882321F0CFBFCD
S1131A4085E090E024C0809107018823A1F480916F
S1131A503101823081F409C082E080933101109217
S1131A6007010E944103B89AC0981093040180E0D2
S1131A700FBF99270CC080913101882369F38FB778
S1131A80F894992710923B038FBF81E0F1CFDF9147
S1131A90CF911F910F9108951F9383E00E940F0D22
S1131AA09927182F882319F083E00E945603812F69
S1131AB099271F910895662351F480914E0188233C
S1131AC019F00E94CD0B089510924F0108958BE1F7
S1131AD00E948C010895EF92FF920F931F93CF936E
S1131AE0DF93182F7B01042FE82FFF27EE0FFF1F32
S1131AF0EF59F64F1182108210921701A0916109DB
S1131B00B0916209109721F08091660280FF0EC0A7
S1131B1081E08093170103C08AE10E948C011123A4
S1131B20C9F4602FC7010E945B0D14C0FD013596F6
S1131B3024813327ED016D817727762F66278181F4
S1131B409927682B792BAD0186810E94C7018823D0
S1131B5031F3E2CFDF91CF911F910F91FF90EF907E
S1131B600895EF92FF920F931F93CF93DF937C011D
S1131B70EB01293909F081C0FC0180A5992787FD73
S1131B8090958983892F9927888300912A01109140
S1131B902B01D801AA0FBB1FA00FB11FAA0FBB1F97
S1131BA0AA0FBB1FFD01E150FE4F4A816B812081CA
S1131BB03327322F222781819927282B392B552728
S1131BC0542F44277727462B572B2417350709F41E
S1131BD054C04183852F992780838881298199273F
S1131BE0982F88273327822B932BFD01EF5FFD4F1E
S1131BF08183892F992780838A852B859927982F1C
S1131C0088273327822B932BFD01E658FE4F8183CF
S1131C10892F992780838091000190910101FD0112
S1131C20EB5FFD4F8183892F99278083FD01ED5F51
S1131C30FD4F1082FD01EC5FFD4F1082ED01C55494
S1131C40DE4FFD01E350FE4F8CE00190099281507C
S1131C50E1F7C801880F991F800F911F880F991F02
S1131C60880F991FDC01A059BE4FFC01E350FE4FC1
S1131C708CE001900D928150E1F71FB7F8948091A8
S1131C806302882329F580916A019927FC01EE0FEC
S1131C90FF1FE052FE4FC081D181F182E0820196A4
S1131CA06CE070E00E943E2680936A012091330329
S1131CB0281719F481E08093630280919E09882398
S1131CC051F481E10E948C0181E080939E0903C05C
S1131CD00E946302E701812F99278FBFCE01DF9114
S1131CE0CF911F910F91FF90EF900895442319F025
S1131CF00E94630220C03FB7F8942091EB09E22FC1
S1131D00FF27EE0FFF1FEB57FD4F8081918168176E
S1131D10790771F4822F8F5F8093EB098C3010F078
S1131D201092EB0980916901882311F010926901E6
S1131D30832F99278FBF82E10E948C010895EF922F
S1131D40FF920F931F93CF93DF93182F7B01042FE0
S1131D508FB7F894C82FDD2760E080E00E94240349
S1131D60882321F0CFBF80E090E014C0CFBF10647F
S1131D70812F992790937902809378020E94AE0371
S1131D80182F402F5527B70180E090E00E942804C7
S1131D90812F9927DF91CF911F910F91FF90EF90A1
S1131DA00895C098609150017091510141E08FE312
S1131DB00E949F0E089582E090E09093B301809377
S1131DC0B20181E08093FB0120E030E080910401C6
S1131DD0843011F421E030E0232B29F484E00E94C4
S1131DE00F0D882319F40E94D10E089584E00E94F7
S1131DF0560308951F920F920FB60F9211242F933A
S1131E003F934F935F936F937F938F939F93AF937E
S1131E10BF93EF93FF938091B2019091B301019727
S1131E2049F482E090E09093B3018093B2010E9460
S1131E30DB0E05C08091BA018F5F8093BA01FF91D8
S1131E40EF91BF91AF919F918F917F916F915F912E
S1131E504F913F912F910F900FBE0F901F901895A7
S1131E601F9380913001882309F04BC01091040125
S1131E701F3F09F046C060E00E942403882309F450
S1131E8040C081E08093BB05809195018823E1F1F6
S1131E901092BB0585E090E045C0923069F5C09A88
S1131EA08091050120E030E08F3F11F421E030E023
S1131EB0232BE9F4109307018F3F19F42FEF30E03F
S1131EC00DC0282F3327F901E459FD4F80818093F9
S1131ED005018F3F11F41093060110832093DF0155
S1131EE081E08093310188E00E948C0105C0109349
S1131EF007011092310111C080913101882369F0EA
S1131F000FC081E090E00EC08091070190913101F3
S1131F10882319F2923021F0EFCF80E00E9435033C
S1131F2080E090E01F9108951F93CF93DF939FB7B4
S1131F30F894C92FDD271C2F90910401981721F0E4
S1131F40CFBF81E090E03AC08FEF809304013091DD
S1131F5030013323F1F48FB7F894992710923B039F
S1131F608FBF0E94300FCFBF11C02093040181E0C6
S1131F7090E002C0880F991F4A95E2F780953823B4
S1131F803093300186E00E948C011FBF80E090E016
S1131F9015C080E065E0E32FFF270E941E26292F4D
S1131FA0492F5527CF01042E02C0959587950A9491
S1131FB0E2F780FDDACF822F8F5FEFCFDF91CF91F1
S1131FC01F9108951F93CF93DF938FB7F894C82F71
S1131FD0DD271C2F8091B2019091B301892B29F444
S1131FE084E00E94940FCFBF1EC01092FB01809129
S1131FF0BA01882311F0B79904C00E9908C0882348
S113200019F081508093BA010E94DB0E0BC081E06D
S113201090E09093B3018093B2011092BA0184E0EE
S11320200E94940F1FBFDF91CF911F910895FF92DB
S11320300F931F93CF93DF93F82E8B018FB7F894F0
S1132040C82FDD2760E080E00E942403882321F06C
S1132050CFBF80E090E00CC0CFBF8F2D0E94AE03B5
S1132060812F99270E94AE03802F0E94AE039927E7
S1132070DF91CF911F910F91FF9008951F931FB788
S1132080F8948091B901882319F460E070E009C0E4
S113209060E08091A509882309F461E081E0682764
S11320A0772780912702882319F480E090E00AC002
S11320B090E080914003882309F491E081E098271F
S11320C0892F9927762F6627770F770F770FE4E00C
S11320D0880F991FEA95E1F7826E9262682B792B3B
S11320E081E10E941710812F99278FBF1F910895B6
S11320F08FB7F89499276091BA058FBF85E0689FE0
S1132100B0011124625D7E4F706488E10E94171053
S11321100895EF92FF921F93CF93DF93E0902802EC
S1132120F0902902F70182A59927182F882309F432
S11321301FE1C0988091B701811749F0612F77277B
S11321406F717070606E706885E10E941710109353
S1132150B701F70110818FB7F894C82FDD2760E02D
S113216080E00E942403882311F0CFBF12C0CFBFA8
S11321708EE390E090937902809378028EE30E943C
S1132180AE031150412F552760E070E0C7010E9453
S11321902804DF91CF911F91FF90EF9008950F9342
S11321A01F93CF93DF93EC010FB7F89411270E948C
S11321B0C602FC018FE380830FBF1092A109109225
S11321C0A00961E082E00E940A03882319F085E0F7
S11321D090E072C08091C8058F5F8093C8058150DC
S11321E08B838FB7F894082F112762E081E00E9457
S11321F02403882329F40FBF0E94490481E05BC0B3
S11322008FB7F894992724E020933C038FBFD09391
S11322108402C09383020FBFFE013196818129811C
S11322209927982F88273327822B932B80729C7CA5
S11322308983892F992781832981982F8827332798
S11322402164822B932B8983892F992781831CA650
S113225018A619A619AA18AA1FA680E88EA761E0D5
S113226060933F0340918302509184028FB7F894A6
S1132270282F3327809132019091330188309105C2
S113228011F0019711F02FBF15C082E090E09093F8
S11322903301809332016093E509509329024093FE
S11322A02802109255012FBF0E944C0D882311F46F
S11322B00E94891080E09927DF91CF911F910F919F
S11322C00895CF93DF93DA01422F2D3118F082E085
S11322D090E05EC0ED018B876E83872F99278F83F3
S11322E02FB7F894332780912502909126022FBFAF
S11322F0FD018483892F992785832FB7F894332789
S113230080910801909109012FBF8887892F99270F
S113231089873196818129819927982F88273327A6
S113232020643868822B932B8983892F9927818392
S1132330435F4C934D5080910B01882359F01092C8
S11323400B01642FCD010E94CF109927282F8823D9
S1132350A9F417C0842F9927909382028093810255
S1132360B0933701A09336018CE00E948C018091D8
S11323700B01882349F489E090E00AC08FEF809331
S11323800B01822F992704C01092620280E090E032
S1132390DF91CF910895AF92BF92CF92DF92EF92E7
S11323A0FF920F931F935B016C016091BB0261FF6D
S11323B020C02091B3023091B4024091B5025091F3
S11323C0B602E090B702F090B8020091B902109101
S11323D0BA02D601C501821B930BA40BB50B8E1553
S11323E09F05A007B10728F0E3EBF2E0A0E0B0E01E
S11323F022C0ECEBF2E06091C40261FF75C0209151
S1132400BC023091BD024091BE025091BF02E090E7
S1132410C002F090C1020091C2021091C302A21A3C
S1132420B30AC40AD50AAE14BF04C006D10608F420
S11324305BC0A1E0B0E060FF04C080858D7F808731
S113244008C02E0D3F1D401F511F2083318342833E
S11324505383A13009F048C08091EA09882309F028
S113246043C0AAE3B2E0ECEBF5E08CE001900D92FE
S11324708150E1F74EE252E08FEF80933402809373
S1132480350289E9809339028091A8029091A902CA
S1132490892B21F55093A9024093A80289E18093E6
S11324A02E0280910E018823A9F010920E012CE0D7
S11324B06FEF7FEF89E90E9461119927282F882304
S11324C049F081E080930E011092A9021092A802B3
S11324D0222321F481E08093EA0906C08091EA096D
S11324E0882311F40E9450048BE00E948C011F91F8
S11324F00F91FF90EF90DF90CF90BF90AF90089531
S11325000F931F93CF93DF93182FEB01042FE82F22
S1132510FF27EE0FFF1FE855FD4F11821082109226
S11325200E01E091A802F091A902309721F0809168
S11325309F0980FF0EC081E080930E0103C08EE0EE
S11325400E948C011123B9F4602FCE010E94D8049B
S113255012C020812D50332767817727762F662775
S113256086819927682B792BAF0183850E9461119D
S1132570882341F3E4CFDF91CF911F910F91089508
S11325809B0180910E01882349F46091A802709107
S1132590A9026217730711F40E9480120895CF9262
S11325A0DF92EF92FF920F931F93CF93DF938C01EF
S11325B0F62E6A01E22E8FB7F894C82FDD2760E06B
S11325C080E00E942403882321F0CFBF80E090E0C4
S11325D01EC0CFBF0F0D111D802F80680E94AE0357
S11325E0F82E16950795802F807C0E94AE030E2D41
S11325F00AC0EE2DFF27E01BF109EC0DFD1D8081C3
S11326000E94AE0301500023A1F78F2D9927DF917B
S1132610CF911F910F91FF90EF90DF90CF9008958D
S1132620CF93DF93CDB7DEB72C970FB6F894DEBF08
S11326300FBECDBF8FB7F894282FAE014F5F5F4F09
S1132640DA01E1E4F3E088E001900D928150E1F7D2
S113265080912502909126028987892F99278A875C
S113266080917202909173028B87892F99278C87AE
S11326702FBF2CE060E080E691E00E94CF122C9600
S11326800FB6F894DEBF0FBECDBFDF91CF91089592
S11326901F93CF93DF93182F8FB7F894C82FDD279C
S11326A060E080E00E942403882321F0CFBF80E013
S11326B090E005C0CFBF812F0E94AE039927DF9120
S11326C0CF911F9108950E94CB05C09AC09888E0CD
S11326D00E94481388E00E944813C09A84E00E9434
S11326E0940F0E94E20F08951F93182F81E090E049
S11326F09093330180933201109295010E94300F20
S11327008FB7F894992710932C018FBF82E00E9411
S11327108C011F91089561E081E00E940A038823DF
S1132720E9F48FB7F894282F332780912D019091E5
S11327302E01892B11F02FBF20C081E090E09093EF
S11327402E0180932D012FBFDD9A0E94660624E19D
S113275030E040E050E00E9423070FC062E081E0D7
S11327600E942403882319F089E090E0089561E031
S113277081E00E942403882319F080E090E008950A
S113278085E090E00895CF92DF92EF92FF920F934D
S11327901F93CFB6F894DD240E94E605DC01CB013B
S11327A066E470E00E942A267BE0E72EF12CE80E16
S11327B0F91EF092E009E092DF090E946606002704
S11327C01127A80197010E942307CFBE1F910F91E3
S11327D0FF90EF90DF90CF9008951F93CF93DF93F6
S11327E08FB7F894C82FDD271C2F80913201909168
S11327F033010897C9F489E00E94481383E00E94DA
S1132800940FC09A81E090E0909333018093320159
S11328108FB7F894992723E020932C018FBF82E08F
S11328200E948C01CFBF30C0C0988091E5098823F5
S113283011F085E001C084E00E94481383FD09C0C3
S113284080E00E94481383FF04C085E090E020E00C
S113285003C083E090E021E0909333018093320140
S1132860C09A1FBF222341F01092550183E00E94B9
S1132870940F0E94C31308C00E94660620E431E04E
S113288040E050E00E942307DF91CF911F9108950B
S113289078941F920F920FB60F9211241F932F93C7
S11328A03F934F935F936F937F938F939F93AF93D4
S11328B0BF93EF93FF9387B78F7E87BF78941FB73B
S11328C0F8948091680290916902A0916A02B09193
S11328D06B020097A105B10509F051C08091320146
S11328E0909133018530910561F18630910530F482
S11328F08330910549F0049781F51AC0873091051A
S1132900F1F0089751F514C0869B0FC084E090E065
S113291090933301809332010E94660627E030E0F1
S113292040E050E00E94230718C00E94C31315C062
S11329300E944C0D882389F40E94ED130EC080E0A0
S11329400AC089E00E94481381E00E943E0783E0A8
S11329500E94940F87E00E94741380912D0190913E
S11329602E01019771F482E090E090932E01809300
S11329702D01DE98DE9A80E00E94560302C00E9478
S11329808306812F99278FBFFF91EF91BF91AF915C
S11329909F918F917F916F915F914F913F912F9173
S11329A01F910F900FBE0F901F901895EF92FF92FA
S11329B00F931F93CF93DF938B01809178029091B3
S11329C0790286FF40C18F7B8F3309F08EC1C0919D
S11329D05001D091510158815093B4018091B201BA
S11329E09091B3018530910509F443C08630910577
S11329F009F48AC0029709F01FC185E090E0909322
S1132A00B3018093B20140916F01852F99270196FC
S1132A10242F3327281739074CF1B79906C00E998C
S1132A2004C0451B415040936F014091B4014A32A8
S1132A30E8F44423A1F0BE016F5F7F4F483018F0E3
S1132A4047E050E007C086E090E09093B3018093A4
S1132A50B201552780E090E00E94280446C11092FC
S1132A60FB01C09A84E00E94940FE3C00E946313A8
S1132A703CC186E090E09093B3018093B2018091D1
S1132A802702882309F439C0809140038823A9F5DB
S1132A90898185FF32C08F814E812FB7F894332707
S1132AA060917202709173022FBF9927982F882723
S1132AB05527842B952B8617970759F08F812E81E4
S1132AC09927982F88273327822B932B8F5F9F4F2B
S1132AD0A1F489818770813081F4C09AC0988AE01A
S1132AE00E944813C09AC0984091B4014750289658
S1132AF0BE018FE30E949F0EF8C04091B40147507D
S1132B0055272896BE01A6CFC09A8091BA01882382
S1132B1039F484E00E94940F8091BA01882311F063
S1132B20B7990AC00E9B08C090919709992321F088
S1132B308091B4018B3038F480915001909151010F
S1132B400E94D7053DC0913001F5E0919D09FF2712
S1132B50EE0FFF1FEE0FFF1FEF5BF64F2081318159
S1132B6042815381E0915001F091510121ABBB2787
S1132B70A52F942F832F80ABCA01AA27BB2787A731
S1132B80252F33274427552726A780919D09992768
S1132B90019668E070E00E943E2680939D09809132
S1132BA09709815080939709882351F080915001AF
S1132BB0909151010E94D70510929D091092970996
S1132BC08091B401FE01E80FF11D808187FF31C0BF
S1132BD0012B79F169816770E0915001F091510105
S1132BE0623019F5A0912802B0912902109709F1D9
S1132BF080913201909133010797D9F4ED019B81C3
S1132C0083819817B1F487B78F7E87BF908181E065
S1132C108CA7E90FF11D8291319688A780818F7767
S1132C2089A780E00E94741304C0613011F489E024
S1132C302AC00E94E20F59C01092FB01C09A84E09E
S1132C400E94940F52C08E3309F04FC0C09A8091F5
S1132C503201909133010897C9F4C09889E00E9429
S1132C604813C09A83E00E94940F81E090E090930F
S1132C703301809332018FB7F894992723E020938E
S1132C802C018FBF82E00E948C012FC08091E50946
S1132C90882349F484E090E09093330180933201D7
S1132CA00E94ED1322C083E00E94940F83E090E021
S1132CB090933301809332010E94E605DC01CB013D
S1132CC066E371E00E942A26EBE0EE2EF12CE80E7A
S1132CD0F91EF0926801E09267010E9466060027DF
S1132CE01127A80197010E942307DF91CF911F911B
S1132CF00F91FF90EF9008951F920F920FB60F92CD
S1132D0011242F933F934F935F936F937F938F93EC
S1132D109F93AF93BF93EF93FF932FB1E0912D0354
S1132D20F0912E03309739F08091A6029091A7027A
S1132D30E80FF91F20838091A6029091A7020196C3
S1132D409093A7028093A60280E00E943B034091E7
S1132D505301509154018091A6029091A7028417C7
S1132D60950718F40E94BA031CC060912D0370915A
S1132D702E038091A6099091A70910922E03109218
S1132D802D031092A7091092A609109254011092D3
S1132D9053011092A7021092A6022FB120E00E94C4
S1132DA0D614FF91EF91BF91AF919F918F917F9135
S1132DB06F915F914F913F912F910F900FBE0F90A4
S1132DC01F901895AF92BF92CF92DF92EF92FF922D
S1132DD00F931F93CF93DF93CDB7DEB7A8970FB6AA
S1132DE0F894DEBF0FBECDBFE82FFF27EC31F1050D
S1132DF010F00C945F20EA5BFF4FEE0FFF1F05906D
S1132E00F491E02D099480919F09882311F40C9486
S1132E105F2090E011E03FC680916602882311F4A0
S1132E200C945F2090E011E00C940B200FB7F89401
S1132E30112781E00E943E0761E0E62EF12CF0921A
S1132E403301E092320110923401109295011092F4
S1132E50B7010FBF0FB7F89411270E94CB05F0926A
S1132E60B301E092B2011092FB0189B78F7B89BF55
S1132E7080E488BF8AB780628ABF8AB78F7E8ABFA0
S1132E8089B7806489BF0FBF8FB7F894082F1127C3
S1132E9080912D0190912E01049719F483E00E94F2
S1132EA048130FBF0FB7F8941127C09A80E00E940F
S1132EB0940F0FBF8FB7F894992722E020933C0317
S1132EC08FBF1092690148EE53E060E070E081E04A
S1132ED00E94A6050C945F208FB7F894992710924E
S1132EE03C037BC08FB7F8949927D0902C018FBFF7
S1132EF063E081E00E942403882359F10FB7F8941A
S1132F001127109233011092320187B78F7E87BF49
S1132F1087B78F7D87BF83E00E94940FC09A0FBF4D
S1132F200FB7F89411271092B3011092B2010E94C6
S1132F30CB05C09A89B78F7B89BF0FBF10922E0132
S1132F4010922D01DE98DD98DE9A81E00E948C01BA
S1132F5007C08FB7F894992722E020933C038FBFD2
S1132F60E0908302F09084020E9449048091A009B9
S1132F709091A109892B11F00C945F208FEF80931D
S1132F800B01F701038511274D2DB701802F0E94F6
S1132F90760E4D2D77C58FB7F894282F3327122F2F
S1132FA08091E109882309F021C681E08093E10939
S1132FB080912D0190912E01049721F481E00E94CB
S1132FC0560303C084E00E948C011FBF0C945F2051
S1132FD08FB7F89499271092E1098FBF0C945F2062
S1132FE08FB7F894282F332780912F01882309F075
S1132FF0FDC52FBF80B3992756E0969587955A95BE
S1133000E1F7182F1170909174028091750289175D
S1133010D9F01917C9F484E090E090932E018093BD
S11330202D018FB7F894992721E020932F018FBFAA
S113303060E070E08DE10E9417100E941013C09AA6
S1133040C09880E00E948C011093750285E00C9476
S113305045208FB7F8949927109104018FBF12303F
S113306009F469C0133038F4112369F0113011F0F8
S11330700C945F204AC0133009F477C0143011F067
S11330800C945F20A6C0C0988FB7F894082F11271E
S113309080912D0190912E010297A1F583E090E09B
S11330A090932E0180932D0168E170E08DE10E94E0
S11330B0171081E08093740210922F0180B3992736
S11330C046E0969587954A95E1F7817090708093D4
S11330D0750285E00E948C0181E00E9448136FE72D
S11330E072E08CE10E9417100E9478100E943E103A
S11330F066E57AE287E10E9417106FEF70E885E1D8
S11331000E9417100FBF0C945F20C09886E00E94A5
S113311048130E9478100E943E100E941013C09A17
S1133120C09883E00E944813C09A81E00E94940FE3
S113313084E00C944520C0988FB7F894082F112789
S113314060E080E00E942403882311F00FBF0AC0CE
S11331500FBF83E50E94AE0380E00E94AE0380E0CF
S11331600E94AE03C09A82E030C08FB7F8949927CA
S1133170209132018FBF243041F0283051F02230A9
S113318019F50E9489100C945F200E94ED130C9491
S11331905F20C09889E00E944813C09A83E00E948F
S11331A0940F8FB7F894992721E030E030933301DE
S11331B0209332018FBF8FB7F894992710932C0175
S11331C08FBF82E00C94452083E00E94940F0C94FE
S11331D05F200E94D10E0C945F200FB7F894112742
S11331E0409153015091540160912D0370912E032D
S11331F08091A6099091A70910922E0310922D0395
S11332001092A7091092A60910925401109253012A
S11332101092A7021092A60220E00E94D61472CF48
S11332202FB7F89433278091DF018093070182E060
S1133230809331012FBF80910701882309F03FC794
S1133240B89AC09886E021C7A0915001B09151016D
S1133250FC909D012F0D311DF9018081881F882765
S1133260881FFD0183A7F90180818F77FD0181A764
S113327021503040F9018081FD0180A7A0915001C7
S1133280B0915101FD0132818FB7F89499272091B3
S1133290B9018FBF222309F490C0832F99279695F3
S11332A0879596958795837090708230910541F546
S11332B0878146812FB7F894332760917202709109
S11332C073022FBF9927982F88275527842B952B76
S11332D08617970719F481E090E06CC0FD0187819F
S11332E0268140E050E09927982F88273327822BA6
S11332F0932B8F5F9F4F11F441E050E0CA015AC0F5
S1133300039709F0DAC29E012F5F3F4F41E453E077
S113331088E0FA010190AF01F90101929F01815007
S1133320C1F79E012F5D3F4FAE014F5F5F4F88E0B5
S1133330FA010190AF01F90101929F018150C1F797
S11333409E01275F3F4FAE014F5D5F4F88E0FA015A
S11333500190AF01F90101929F018150C1F79E01D3
S11333602F5E3F4FAE01475F5F4F88E0FA01019047
S1133370AF01F90101929F018150C1F79E01275EBF
S11333803F4FAE014F5E5F4F88E0FA010190AF01FD
S1133390F90101929F018150C1F748E050E0BE015C
S11333A0675E7F4FCD0106960E94C926892B09F0DE
S11333B084C203C0882309F480C2FCE0FF1508F02E
S11333C07CC2A0905001B0905101F5012281822F5E
S11333D0992716E0969587951A95E1F7039719F4BE
S11333E068E070E002C062E070E0822F9927969551
S11333F087959695879583709070039719F488E064
S113340090E002C082E090E026E030E0A20EB31E1D
S113341040E050E020E030E0F501E80FF91F8AEFCA
S11334209FEFA80EB91E05C08191480F511D2F5F53
S11334303F4F26173707C4F3F50163818FEF80935D
S1133440A2098FB7F894782F20E030E0EBE5F1E0A3
S1133450808191818417950731F48281861709F45C
S1133460F3C12093A2092F5F3F4F339624303105D7
S113347079F77FBF9091A2093FB7F8949F3F21F05D
S113348080913501891799F420913501822F99276C
S1133490FC01EE0FFF1FE80FF91FE55AFE4F5183A1
S11334A0408362832F5F2370209335010CC0892FE2
S11334B09927FC01EE0FFF1FE80FF91FE55AFE4F95
S11334C0518340836283832F99278FBF0FB7F8946A
S11334D01127C5010E94C602FC0190810FBFF501AE
S11334E083A5882309F4E5C19F3309F0E2C1AF2D18
S11334F0AD503CE0C32ED12CCA0CDB1C8781468125
S11335002FB7F894332760910801709109012FBFF8
S11335109927982F88275527842B952B861797074B
S113352061F0878126819927982F88273327822B5A
S1133530932B8F5F9F4F09F0ABC5F501238533278C
S1133540122F4A2FB601C5010E94B10D193909F095
S1133550A7C50E94630210922B0110922A0160E019
S113356070E09B01220F331F260F371F220F331FDA
S1133570220F331FF901E958FE4F8081882309F097
S113358083C0F901EC58FE4F80819927982F882732
S113359021813327822B932B2091E2093091E30977
S11335A06F5F7F4F820F931F0E942A267093A40996
S11335B06093A309809102019091030186179707F4
S11335C008F462C070930301609302016093C7051D
S11335D0872F99278093C605F60182812381992735
S11335E0982F88273327822B932BFC01EE0FFF1F84
S11335F0E80FF91FEE0FFF1FEE0FFF1FEA59FE4FF2
S113360080819927982F882721813327822B932B18
S11336108093BF05892F99278093BE05F601828187
S113362023819927982F88273327822B932BFC01FA
S1133630EE0FFF1FE80FF91FEE0FFF1FEE0FFF1F26
S1133640E859FE4F80819927982F882721813327B5
S1133650822B932B8093C105892F99278093C005D2
S113366080910001909101018093C505892F9927CC
S11336708093C4051092C30580912A0190912B0177
S113368090932901809328018091C305813009F02A
S113369075C01092E3091092E20960912A017091B9
S11336A02B018B01000F111F060F171F000F111F95
S11336B0000F111FF801EC58FE4FD801A658BE4F59
S11336C080819927F82EEE2481819927E82AF92A06
S11336D02C913327322F2227FD0181819927282B12
S11336E0392BC9018E199F096F5F7F4FA701481BB2
S11336F0590BCA010E942A267093A4096093A30956
S113370062177307D8F56093C705872F99278093AD
S1133710C605F801EE58FE4F80819927982F882717
S113372021813327822B932B8093BF05892F9927DF
S11337308093BE05E092C1058F2D99278093C00523
S113374080910001909101018093C505892F9927EB
S11337508093C40581E08093C305809128019091F2
S1133760290101969093290180932801DA9848EE63
S113377053E060E070E081E00E94A60560912A01B8
S113378070912B016F5F7F4F70932B0160932A011F
S11337906230710508F4E5CED6011896F6018085ED
S11337A0B601675F7F4F218540910001509101016F
S11337B09927982F88273327822B932B84179507D3
S11337C009F044C08681813009F040C0809128010D
S11337D0909129019093270180932601892B09F464
S11337E068C0828123819927982F88273327822BC9
S11337F0932B8093BF05892F99278093BE0581E081
S11338008093C3051092E3091092E2098281238117
S11338109927982F88273327822B932B9C01220FDB
S1133820331F280F391F220F331F220F331FD901D3
S1133830A155BE4FF901E554FE4F8CE001900D9265
S11338408150E1F7DA982EC07FBF33C08C91FB0121
S113385020819927982F88273327822B932B84172D
S1133860950739F1F6018681813019F5828123812A
S11338709927982F88273327822B932B9C01220F7B
S1133880331F280F391F220F331F220F331FD90173
S1133890A155BE4FF901E554FE4F8CE001900D9205
S11338A08150E1F748EE53E060E070E081E00E946F
S11338B0A605B0925101A09250018FB7F8949927B0
S11338C01092FB018FBF0E94E20FF9C38091B601F1
S11338D0882361F520913D0930913E0940913F09CB
S11338E050914009EFB7F894FF2760913703709126
S11338F038038091390390913A03E0906B01F09082
S11339006C0100916D0110916E016E0D7F1D801F81
S1133910911FEFBF20933D0930933E0940933F0927
S1133920509340091092B6010E948C050E94E20453
S11339306DC00E94E2045B016C018FB7F894992773
S113394010929D028FBF8091BB0281FF25C08091A0
S1133950B3029091B402A091B502B091B602A6014F
S11339609501281B390B4A0B5B0BE090B702F090D2
S1133970B8020091B9021091BA02E21AF30A040BD8
S1133980150B3FEFE3163FEFF3063FEF03073FE767
S1133990130711F061E009C08FEFE82E8FEFF82EC6
S11339A08FEF082F8FE7182F60E08091C40281FF0A
S11339B021C08091BC029091BD02A091BE02B09141
S11339C0BF02A6019501281B390B4A0B5B0BDA01D8
S11339D0C9012091C0023091C1024091C2025091AC
S11339E0C302281B390B4A0B5B0B2E153F054007FE
S11339F051072CF0662309F462C3A801970112163B
S1133A001306140615062CF0C601B5010E94CB114D
S1133A1056C320933D0930933E0940933F09509388
S1133A20400981E08093B601C601B5010E948C056E
S1133A3046C39091620280910B01981709F43FC329
S1133A4090930B01992319F50091360110913701D8
S1133A5060918102C8010E94CF10C82EDD24CC20C1
S1133A6009F42DC38FEF80930B01E0903601F090A1
S1133A703701F801038511274C2DB701802F0E94CF
S1133A80760E4C2DB701802F0E94C01218C38FEF01
S1133A9080930B0114C320919F09812F8223C1F0CD
S1133AA0E92FFF27EE0FFF1FE855FD4F408151819D
S1133AB011821082812F8095282320939F099923B6
S1133AC039F463E0CA010E94D804110F91E0E3CFF6
S1133AD09F5F983008F0F3C2110FDDCF80910E0183
S1133AE0E82FFF27EE0FFF1FE855FD4F608171811E
S1133AF041E00E948012E3C22FB7F89433278091EB
S1133B00B90580930F0183E0809339012FBF809121
S1133B100F01882309F0D3C281E0809380021092C0
S1133B209C090E946204CBC21092800280919C097D
S1133B30882309F0C4C28FB7F894F82E8091390114
S1133B40833009F040C080910F018823E1F5809112
S1133B50B202882309F0ADC2A5C29095A923A0831F
S1133B606093380125C06F5F7F4F6130710511F498
S1133B7060E070E0862F869586958695E82FFF276E
S1133B80EE54FD4FA081462F55279A0127703070BF
S1133B9081E090E002C0880F991F2A95E2F7982FE0
S1133BA08A2F8923D1F660177107E9F64FEF50E0A9
S1133BB04093B9058FEF80930F0181E08093390121
S1133BC08FE00E948C01FFBE7AC28FB7F894282F31
S1133BD03327422F90916A0180913303981741F45F
S1133BE080916302882321F410929E092FBF67C23B
S1133BF04FBFE0913303FF27EE0FFF1FE052FE4F4C
S1133C00A081B1812C912D5033272093B002FD0166
S1133C10838567810681418590855527542F4427E4
S1133C20E92FFF274E2B5F2BFD014087452F55279A
S1133C304783E0913303FF27EE0FFF1FE052FE4F4F
S1133C40408151817727762F66271127602B712BAE
S1133C500E94C701882309F05FC10E9459042FC242
S1133C608FB7F894282F3327422F909152018091D7
S1133C70EB09981739F480916901882319F410929B
S1133C805A01B4CF4FBFE091EB09FF27EE0FFF1F9E
S1133C90EB57FD4F0190F081E02D658186812185F0
S1133CA033277727762F66279927682B792BAF013F
S1133CB083850E946111882319F40E945004FFC176
S1133CC00E94630282E1E1C18FB7F8941092DE0989
S1133CD02091320340E0283009F441E030E02930FB
S1133CE009F431E0442311F4332351F010923203E8
S1133CF0E091B102FF27EE0FFF1FE458FD4F108241
S1133D0099278FBF442311F4332331F19FB7F894DB
S1133D1080919B098F5F80939B0980916D0283340E
S1133D2079F420919F0280919E02821779F0822F6C
S1133D308F5F80939F02863048F010929F0206C0E6
S1133D40A0E0442309F4A1E071E002C0A0E070E027
S1133D50892F99278FBF06C0222311F0FF246DC03D
S1133D60A0E070E08FB7F894992720913A018FBFB3
S1133D70222341F08FB7F89499272AE02093320345
S1133D808FBF42C08FB7F894992760917C0240910D
S1133D907E028FBF8FB7F894282F332750E090917D
S1133DA09E0280919F02981709F451E02FBF55237A
S1133DB041F5662331F55FB7F89482E080937C0285
S1133DC08FB7F894282F332740E090919E0280917A
S1133DD09F02981709F441E02FBF442311F080E0BB
S1133DE006C0E0919F02FF27E256FD4F8281809337
S1133DF07D0283E480936D021092B102852F99278E
S1133E000EC04150423010F0FF240CC08FB7F8941C
S1133E10992725E420936D0221E02093B1028FBFFE
S1133E2021E0F22E772349F08FB7F8949927A093D5
S1133E3043018FBF87E10E948C018FB7F894082F4C
S1133E401127809132038A3019F40E946C025AC9F6
S1133E500FBFFF2009F433C12FB7F8943327109212
S1133E60E7091092E6091092670281E08093320319
S1133E702FBF0E94B202882309F421C18FB7F8949E
S1133E80992729E0209332038FBF0E94B30117C101
S1133E905698579810922F0310922302539A549ACB
S1133EA0579A8FB7F8949927109232031092FC0115
S1133EB08FBF1092630203C186E1E7C05398549800
S1133EC0FEC01092400110923F018FB7F8949927D9
S1133ED0F09043018FBF80914401882311F093E057
S1133EE0F92E00913D0110913E01809145018823F6
S1133EF009F0E5C080911701882361F4809161097C
S1133F00909162098017910729F44F2DB80180E040
S1133F100E946B0DFF2019F00E94630220C03FB77E
S1133F20F89420913303E22FFF27EE0FFF1FE05296
S1133F30FE4F808191810817190771F4822F8F5FDA
S1133F40809333038C3010F010923303809163021A
S1133F50882311F010926302832F99278FBF81E188
S1133F6094C08FB7F8949927209147010091480194
S1133F7010914901D09094018FBF2223A1F5CFB6AF
S1133F80F89480916901882339F580915201E82FD2
S1133F90FF27EE0FFF1FEB57FD4FE080F1801183E9
S1133FA000838F5F809352018C3010F01092520185
S1133FB0909152018091EB09981719F481E0809354
S1133FC0690180915A01882351F482E10E948C0195
S1133FD081E080935A0103C00E94630278018C2D12
S1133FE099278FBF87018FB7F894ED2DFF27EE0F28
S1133FF0FF1FEF5EFE4F1183008320913B01DD2004
S113400011F02B7F01C02D7F20933B0110924601BC
S113401099270C94ED1720916602812F8223C1F019
S1134020E92FFF27EE0FFF1FEF59F64F4081518113
S113403011821082812F8095282320936602992370
S113404039F463E0CA010E945B0D110F91E0E3CFE4
S11340509F5F9830A0F5110FDECF80911701E82FF4
S1134060FF27EE0FFF1FEF59F64F6081718141E08A
S11340700E946B0D24C04CE168EA79E08FEF9FEF5A
S11340800E9422028823D9F08BE10E948C0117C080
S1134090F501238533274A2FB601C5010E94B10DCE
S11340A05C0107CC81E080930F01109239013798AD
S11340B08ACD80913801082F1127B80154CDA896D4
S11340C00FB6F894DEBF0FBECDBFDF91CF911F9125
S11340D00F91FF90EF90DF90CF90BF90AF90089535
S11340E0809198098F3FB1F0282F3327F901EA56C0
S11340F0FE4F8081809398098F3F11F48093E409E7
S11341008FEF80832F3F31F0822F0E94E21681E0EF
S113411090E0089580E090E00895FF920F931F933C
S1134120CF93DF93CDB7DEB7E0970FB6F894DEBF39
S11341300FBECDBFFFB6F8944CE150E06FEF70E0D6
S113414086E991E00E94D6268FEF809398098093A8
S1134150E40981E08EBD88E080BF83E083BF8CB535
S11341609DB54AE72CB53DB52817390708F44150E9
S1134170442311F0C901F6CF92B782B78917E9F346
S11341802CB53DB592B782B78917E9F38CB59DB5C7
S1134190821B930B4096F5E096958795FA95E1F787
S11341A090939A098093990913BE83B78EBD8EB5F7
S11341B080BF12BE1DBC1CBC8FEF86BF86B7809328
S11341C07C0080B7992787709070892BD1F7D29A99
S11341D0D19AD09ADA9AD99AD89A15BA8FEF84BB21
S11341E0D498DC98109289001092880080917D0008
S11341F0846080937D0080918A00887F82608093B0
S11342008A0016B81DBC1CBC87B7846087BF8EB5F6
S1134210887F84608EBD0E9470208823E1F788E146
S113422091E09093EF098093EE0910924F0112E010
S113423006E06091990970919A0988279927ECE022
S1134240660F771F881F991FEA95D1F720E031EE9A
S113425040E050E00E9451262150304029B9832F7C
S11342609927809390001BB9009395001AB8209366
S113427099008093980010939B0000939D001092E6
S11342809A0084E490E0909339098093380910925D
S11342907C0210927E028AE08093320310926702BD
S11342A010926D0210929B091092E7091092E60990
S11342B01092DE091092B10210923409109233095F
S11342C084E08093FC011092350310923C09109213
S11342D024021092AD021092AC0210929F0210922E
S11342E09E021092B2028FEF8093F801EBE5F1E0A9
S11342F08FEF9FEF918380831282339621E0E7361C
S1134300F207C1F70E94E6056093C8058091000199
S1134310909101010196AA27BB2780932A029093CA
S11343202B02A0932C02B0932D0280B7886080BF2B
S11343308BE083BF86EE81BF87B7826087BF0E9410
S1134340090583E699E090935101809350018E987A
S1134350B89A8C988FEF80936C0210923B03109262
S11343603C0310923D0310923E03B89AD69AD59A14
S11343708FB7F894992720910801309109018FBFD4
S113438030937302209372020E94510729A73AA71F
S11343904BA75CA76DA77EA78FA798ABDE0191966C
S11343A0FE01B99688E001900D928150E1F7DE019B
S11343B05196FE01B19688E001900D928150E1F78B
S11343C0DE015996FE01719688E001900D928150AC
S11343D0E1F7A1E4B3E0FE01799688E001900D9243
S11343E08150E1F780910A019927909326028093E6
S11343F025028FE1809336038AE18093BA050E94F7
S1134400510729A73AA74BA75CA76DA77EA78FA73B
S113441098ABDE019196FE01B99688E001900D9269
S11344208150E1F7DE011196FE01B19688E001901A
S11344300D928150E1F7DE011996FE01319688E074
S113444001900D928150E1F7A1E4B3E0FE013996A9
S113445088E001900D928150E1F7A1E4B3E0FD0101
S113446037969C9180818D939083319783E0E434D7
S1134470F807B9F781E08093B9011092A5098093F8
S11344802702109240030E9470208823E1F78F2DA9
S113449099278FBF7894E0EEF1E083EC96E0819366
S11344A09193C49621E0E83FF207C9F710923303D1
S11344B010926A0110929E0981E080936302E5E8FC
S11344C0F2E089E493E081939193C49622E0ED397C
S11344D0F207C9F71092EB091092520110925A0197
S11344E081E0809369010E948B138FB7F894282F81
S11344F03327922F809132038A3031F08091FC016E
S1134500843011F02FBF04C09FBF84E10E948C014E
S113451081E090E09093E3098093E2090E948B1379
S1134520882311F00E9450048FB7F894482F552720
S11345304BC087B7992783709070892B19F4E5E0F5
S1134540F0E013C080B7992787709070892BD1F75A
S113455081B792B7891B8C3030F082B7853F18F44D
S1134560E3E0F0E002C0E2E0F0E087B7887BC1F46A
S113457080917D008B7FA1F46E9912C08AB19091D5
S11345809A00892B887161F48091740082FD08C0BF
S1134590379B03C081E090E005C085E090E002C055
S11345A080E090E025B78E1708F4E82FFF27EC533E
S11345B0FD4FE491237E2062E22BE5BF7894889539
S11345C0F89485B78F7D85BF809198098F3F09F452
S11345D0B0CF282F3327F901EA56FE4F808180930C
S11345E098098F3F11F48093E4098FEF80832F3F64
S11345F009F49FCF4FBF822F0E94E21695CF789483
S11346001F920F920FB60F9211242F923F924F9246
S11346105F926F927F928F929F92AF92BF92CF924E
S1134620DF92EF92FF920F931F932F933F934F9339
S11346305F936F937F938F939F93AF93BF93CF9326
S1134640DF93EF93FF93C6B5D7B58FB7F894282EB1
S11346500E9466069B012C1B3D0B442755272B010A
S11346603C01421A530A640A750A809132019091FE
S113467033018530910521F0069709F0E0C0BFC0F1
S113468086E090E0909333018093320131E0332E41
S11346903092F9011092340180E00E943E07E091CB
S11346A02802F091290241AABB27A72D962D852D1A
S11346B080ABC301AA27BB2787A7872D9927AA27E1
S11346C0BB2786A7E0912802F091290285A58823BB
S11346D009F484C06081655077274F01860E971EC8
S11346E0F4012081E1808281A3809927AA27BB2736
S11346F0BA2FA92F982F8827332744275527522FBD
S1134700442733272227FF24002711278701FF246A
S1134710EE242E293F29402B512BBB24CC24DD240D
S11347202A293B294C295D29822B932BA42BB52BB9
S113473084199509A609B7098383292F3A2F4B2F8A
S1134740552722839D014427552721838B2F9927A1
S1134750AA27BB278083C09824E0A40180E090E0CE
S11347600E94CF12C09AF4012081E1808281A3804B
S11347709927AA27BB27BA2FA92F982F8827332731
S113478044275527522F442733272227FF24002765
S113479011278701FF24EE242E293F29402B512B7A
S11347A0BB24CC24DD242A293B294C295D29822BD6
S11347B0932BA42BB52B840D951DA61DB71D8383A8
S11347C0292F3A2F4B2F552722839D014427552704
S11347D021838B2F9927AA27BB278083E091280266
S11347E0F0912902818185FF02C03092950183E016
S11347F00E94940F87B78F7E87BF84997AC01092E6
S1134800F90181E00E943E07E0912802F09129021B
S1134810818185FF0FC087E090E0909333018093FE
S113482032010E94660620E031E040E050E00E9440
S1134830230703C080E00E947413849B5AC08091B4
S11348403401882391F58091F901882371F511E0F1
S11348501093F9010E943E0780B3209197092830F4
S113486098F4E0919D09E20FFF27E770F070EE0FD6
S1134870FF1FEE0FFF1FEF5BF64F408251826282F3
S113488073822F5F2093970910933401D0937B0296
S1134890C0937A0284992DC09927A4E096958795B0
S11348A0AA95E1F7182F117001C010E08091F90169
S11348B08130F9F41092F9010E943E0710923401FC
S11348C01123B9F480917A0290917B02C81BD90B11
S11348D02A9778F480919709882319F0815080935E
S11348E097098091280290912902009711F00E9463
S11348F0D7052FBEFF91EF91DF91CF91BF91AF917B
S11349009F918F917F916F915F914F913F912F91E3
S11349101F910F91FF90EF90DF90CF90BF90AF90D9
S11349209F908F907F906F905F904F903F902F90CB
S11349300F900FBE0F901F901895ACE2B0E0E3EA21
S1134940F4E20C949226222E332E442E552E662EFB
S1134950772E882E992EFE013196A8E01192AA9501
S1134960E9F729823A824B825C826D827E828F8251
S11349709886FE013996B8E01192BA95E9F7A986AE
S1134980BA86CB86DC86ED86FE860F87188B8981F6
S11349909A81AB81BC8189A79AA7ABA7BCA77C01EC
S11349A08D018FEF9FEFA0E0B0E0E822F9220A2307
S11349B01B2389A59AA5ABA5BCA51D014424552498
S11349C089859A85AB85BC858DA39EA3AFA3B8A723
S11349D05C016D018FEF9FEFA0E0B0E0A822B92247
S11349E0CA22DB228DA19EA1AFA1B8A53D018824D6
S11349F09924C801B701A60195010E94732669A3F1
S1134A007AA38BA39CA3C801B701A40193010E94BC
S1134A1073267B018C01C201B101A60195010E949C
S1134A2073265B016C01C201B101A40193010E94D0
S1134A3073263B014C01EA0CFB1C0C1D1D1D89A1B6
S1134A409AA1ABA1BCA19D01442755272E0D3F1D62
S1134A50401F511F2A153B054C055D0540F480E0BD
S1134A6090E0A1E0B0E0680E791E8A1E9B1ECA0188
S1134A70AA27BB27860D971DA81DB91D8D8F9E8F54
S1134A80AF8FB8A3A9013327222789A19AA1ABA18B
S1134A90BCA1A070B070280F391F4A1F5B1F298F5B
S1134AA03A8F4B8F5C8FA98CBA8CCB8CDC8CED8CC1
S1134AB0FE8C0F8D18A1FE01719698E011929A95C3
S1134AC0E9F7ED8AFE8A0F8B188F2D813E814F8185
S1134AD058856DA17EA18FA198A50E9473263B01E4
S1134AE04C012D853E854F85588969A57AA58BA5EE
S1134AF09CA50E9473262D893E894F89588D260FC7
S1134B00371F481F591F260D371D481D591D2D8B52
S1134B103E8B4F8B588F6D887E888F88988C2A2D7A
S1134B203B2D4C2D5D2D662D772D882D992DE2E1A1
S1134B30AC960C94AE26A0E1B0E0E1EAF5E20C9468
S1134B409226222E332E442E552E662E772E882E14
S1134B50992E002309F466C088E0FE013196119273
S1134B608A95E9F729833A834B835C836D837E833B
S1134B708F829887E0E2E01B1E16CCF52D813E81E2
S1134B804F815885602F772767FD7095DA01C90139
S1134B90062E04C0B695A795979587950A94D2F7E3
S1134BA08D879E87AF87B88B04C0220F331F441FA5
S1134BB0551FEA95D2F789819A81AB81BC8104C0E3
S1134BC0B695A795979587956A95D2F7282B392B93
S1134BD04A2B5B2B29873A874B875C8729843A8445
S1134BE04B845C846D847E848F8498881BC01D866E
S1134BF01E861F86188A2E2F332727FD3095309561
S1134C0021953F4F8D819E81AF81B88504C0B695B3
S1134C10A795979587952A95D2F789879A87AB8721
S1134C20BC87DCCF222D332D442D552D662D772DB9
S1134C30882D992DE2E160960C94AE26991B79E0BB
S1134C4004C0991F961708F0961B881F7A95C9F718
S1134C5080950895AA1BBB1B51E107C0AA1FBB1F67
S1134C60A617B70710F0A61BB70B881F991F5A95F4
S1134C70A9F780959095BC01CD01089597FB092E65
S1134C8007260AD077FD04D0E5DF06D000201AF409
S1134C90709561957F4F0895F6F7909581959F4F94
S1134CA00895A1E21A2EAA1BBB1BFD010DC0AA1F69
S1134CB0BB1FEE1FFF1FA217B307E407F50720F081
S1134CC0A21BB30BE40BF50B661F771F881F991FFC
S1134CD01A9469F760957095809590959B01AC0145
S1134CE0BD01CF010895629FD001739FF001829F9F
S1134CF0E00DF11D649FE00DF11D929FF00D839F67
S1134D00F00D749FF00D659FF00D9927729FB00D03
S1134D10E11DF91F639FB00DE11DF91FBD01CF0116
S1134D20112408952F923F924F925F926F927F9237
S1134D308F929F92AF92BF92CF92DF92EF92FF92A7
S1134D400F931F93CF93DF93CDB7DEB7CA1BDB0B53
S1134D500FB6F894DEBF0FBECDBF09942A883988F8
S1134D6048885F846E847D848C849B84AA84B984FF
S1134D70C884DF80EE80FD800C811B81AA81B9810B
S1134D80CE0FD11D0FB6F894DEBF0FBECDBFED011F
S1134D900895FB01DC0104C08D910190801921F478
S1134DA041505040C8F7881B990B0895DC0101C09D
S10F4DB06D9341505040E0F70895FFCF90
S1134DBC01000F27FFFFFFFF010022FFFFFF01018E
S1134DCCFFC502F902C50201000000020000000048
S1094DDC080C00000000B9
S9030000FC
