S01800006275696C642F6D6963617A2F6D61696E2E73726563E5
S11300000C945A000C948C050C9496050C94A00541
S11300100C94AA050C94B4050C94BE050C94DD074D
S11300200C94C8050C9479000C9479000C94FC147D
S11300300C949A160C9456050C946C050C94440676
S11300400C9445050C94050E0C9479000C947900DD
S11300500C9479000C94D2050C9479000C947900DA
S11300600C9461050C9479000C9479000C9479003B
S11300700C9479000C9479000C9479000C94790018
S11300800C9479000C9479000C947900930EE60E8C
S1130090EC0E3D0F580F5F0F980F551078108C1011
S11300A049137C13FF138B0E4A1458147014000860
S11300B01C18141011241FBECFEFD0E1DEBFCDBF3A
S11300C011E0A0E0B1E0E6E9F6E300E00BBF02C016
S11300D007900D92AE30B107D9F712E0AEE0B1E06F
S11300E001C01D92A337B107E1F70E9460170C9479
S11300F04A1B0C9400008FB7F894992708958FBF7A
S11301000895282F9FB7F894E82FFF27E65CFE4F49
S113011080818F3F81F4E0917102E21771F40BC08A
S11301202093620204C0FF27E65CFE4F20832093E5
S1130130710220E007C025E005C0809162028F3F74
S113014091F7EECF892F99278FBF822F9927089592
S11301508FB7F89499272BB334E023272BBB8FBF99
S1130160089580916502882319F02FE170E002C0A0
S113017078E02EE1622FEFB7F894809150018E7FE2
S11301808093500187B1982F9F71829586958695AB
S1130190837019F080E090E012C0822F885086317D
S11301A018F081E090E00BC040E050E03327892F45
S11301B099272817390711F441E050E0CA01982F14
S11301C09170990F809150018178262F2F71422FC1
S11301D0440F440F892B842B80935001332727B974
S11301E0783059F5809163029091640221E0863859
S11301F0920718F087E090E01FC0833C910518F047
S113020086E090E019C08136910518F085E090E011
S113021013C08033910518F084E090E00DC088315C
S1130220910518F083E090E007C00C9718F082E085
S113023090E002C080E090E0782F7770887D872B73
S1130240886D992786B98E2F99278FBF08956623C5
S113025049F48FB7F89499272BB332E023272BBBAB
S11302608FBF02C00E94A800109208020895FC01EA
S113027082819927582F442781819927482B592B0C
S1130280CA01892F9927869586958370907082304C
S1130290910559F08330910559F0892B19F420E028
S11302A030E008C02CE93FEF05C022E030E002C096
S11302B028E030E0CA0184E0989F812D9927112419
S11302C08230910559F08330910559F0892B19F446
S11302D080E090E008C08CE99FEF05C082E090E0E8
S11302E002C088E090E0280F391F2A5F3F4FCF01FA
S11302F0820F931F0895282F9FB7F894662349F01F
S1130300E82FFF27EA50FE4F8081882311F021E077
S113031006C0E22FFF27EA50FE4F608320E0892FBA
S113032099278FBF822F99270895E82F8FB7F894C4
S1130330282F332790E0FF27EA50FE4F808186174D
S113034009F491E02FBF892F99270895882311F08C
S11303506E9A08956E980895882311F06F9A0895FF
S11303606F98089580E00E94A601BA9ABB98B99A42
S1130370B89A6C9A80E00E94AC016B986A9881E00C
S11303800E94A601709A8DB18C7F8DB908950F9348
S11303901F93CF93DF93182F8FB7F894C82FDD27BF
S11303A00C2F61E080E00E947B01882321F0CFBF05
S11303B085E090E024C0809105018823A1F4809118
S11303C01401823081F409C082E0809314011092F8
S11303D005010E94B201B89AC0981093020180E00E
S11303E00FBF99270CC080911401882369F38FB73C
S11303F0F89499271092F6018FBF81E0F1CFDF9135
S1130400CF911F910F9108951F93182F81E00E949F
S1130410A6011FB9779BFECF8FB199271F9108952D
S11304208F929F92AF92BF92CF92DF92EF92FF9200
S11304300F931F93CF93DF938FB7F8949927C090AE
S11304406C02D0906D028090ED019090EE01C0910D
S1130450D401D091D50120911F0130912001EAE00F
S1130460AE2EB12CAC0EBD1E2A153B0508F4590165
S11304708FBF7401EC0EFD1E86010C0F1D1F14C0EE
S1130480C114D10419F0F801808101C080E00E94F8
S113049004028114910411F0F701808321960894D9
S11304A0E11CF11C0F5F1F4FC5010197C817D90745
S11304B038F381E00E94AC019FB7F894C114D104D1
S11304C031F0CC0EDD1EF60180818FB901C01FB85A
S11304D0D093D501C093D401892F99278FBF80E091
S11304E090E0DF91CF911F910F91FF90EF90DF90FB
S11304F0CF90BF90AF909F908F9008952FB7F894AE
S113050033275093200140931F0190936D028093F1
S11305106C027093EE016093ED011092D50110927C
S1130520D4012FBF452B29F08FB10E9410029927C7
S1130530089587E00E94810080E090E008958FB7DD
S1130540F89499271092F8018FBF08957FB7F89413
S113055062B72091220130912301409124015091EE
S1130560250106B601FE0FC081B792B7280F311DD1
S1130570411D511D2F5F3F4F4F4F5F4F290F311DBD
S1130580411D511D04C0260F311D411D511D872FD2
S113059099278FBFCA01B9010895DF92EF92FF92A4
S11305A00F931F938FB7F894282F3327D22E91B728
S11305B082B746B7981711F041FF02C02FBF6AC037
S11305C08091D3018823E1F10E94A602E090F20118
S11305D0F090F3010091F4011091F50120913401A0
S11305E03091350140913601509137016E197F09E0
S11305F0800B910B621773078407950720F0109204
S1130600D30171E01EC02E0D3F1D401F511F80916C
S1130610220190912301A0912401B0912501281B6E
S1130620390B4A0B5B0B273E31054105510540F45C
S1130630822F223010F070E005C070E082E002C02A
S113064070E086EE682F615000B601FCFDCF82B7E2
S1130650681709F46F5F20912201309123014091C2
S1130660240150912501DA01C9010196A11DB11D92
S1130670860F911DA11DB11D82179307A407B5070D
S113068010F4622F609561BFDFBE772319F08AE012
S11306900E9481001F910F91FF90EF90DF900895C9
S11306A0AFB7F894BB27E1E0E093D3016093F20184
S11306B07093F3018093F4019093F5012093340136
S11306C0309335014093360150933701AFBF0E94F8
S11306D0CD020895DF92EF92FF920F931F93D82ECD
S11306E07A018B010E94A60229E0D29EF001112416
S11306F0E552FE4F6083718382839383E482F582A3
S11307000683178380858E7F826080878BE00E94BA
S113071081001F910F91FF90EF90DF90089580E882
S11307208093380110926F01109266021092610258
S1130730109252010895CF93DF93FC0115A6DC01BA
S11307409E96ED011B821A82198280E886A7DF91AA
S1130750CF9108952F923F924F925F926F927F9222
S11307608F929F92AF92BF92CF92DF92EF92FF92BD
S11307700F931F93CF93DF93CDB7DEB728970FB6B0
S1130780F894DEBF0FBECDBF209076013090770184
S11307904090780150907901662477248824BEE43F
S11307A0AB2EA3E8BA2ECC24DD24EE24FF2400E0F3
S11307B010E0222D332D442D552D662D772D882DB7
S11307C090E00E942C1929833A834B835C836D83C8
S11307D07E838F839887822E932EA42EB52E240198
S11307E0350100E20E942A1AA22EB32EC42ED52E61
S11307F0C301B20196958795779567956A0D7B1D20
S11308008C1D9D1D97FF05C09F776F5F7F4F8F4F96
S11308109F4F609376017093770180937801909352
S1130820790128960FB6F894DEBF0FBECDBFDF91D5
S1130830CF911F910F91FF90EF90DF90CF90BF90D9
S1130840AF909F908F907F906F905F904F903F906C
S11308502F9008958FB7F8946091D8017091D901C1
S11308602CB53DB506B602FE04C06F5F7F4F2CB5B4
S11308703DB599278FBF88279927CB01772766270E
S113088044275527622B732B842B952B0895EF92C5
S1130890FF920F931F930E942A047B018C012091E5
S11308A08E0130918F01409190015091910180917E
S11308B0870190918801A0918901B0918A01820FEA
S11308C0931FA41FB51FE216F3060407150730F0A3
S11308D082179307A407B50758F005C0821793073A
S11308E0A407B507E0F5E816F9060A071B07B8F5EB
S11308F09C01AD012E193F09400B510B213060E8DA
S1130900360760E0460760E0560768F180E090E84B
S1130910A0E0B0E0E80EF91E0A1F1B1FE0928E0152
S1130920F0928F01009390011093910180E090E880
S1130930AFEFBFEFE80EF91E0A1F1B1F205030480F
S113094040405040209387013093880140938901AF
S113095050938A0120E030E840E050E014C020E0E9
S113096030E040E050E080938E0190938F01A0939B
S11309709001B09391011092870110928801109216
S1130980890110928A01A901B7012CB53DB5C901AD
S11309908E199F0903968417950720F0B9016D5F9E
S11309A07F4F02C0640F751F6115710511F461E07A
S11309B070E0615070407BBD6ABD80E186BF87B73F
S11309C0806187BF1F910F91FF90EF9008950F935F
S11309D01F930FB7F894112760938E0170938F01C2
S11309E08093900190939101209387013093880123
S11309F04093890150938A010E9447040FBF1F91BD
S1130A000F91089597B79F7D97BF90E296BF882373
S1130A1019F08EB5806402C08EB58F7B8EBD87B70A
S1130A20806287BF80E090E00895AF92BF92CF923A
S1130A30DF92EF92FF920F931F93CF93DF93CDB783
S1130A40DEB728970FB6F894DEBF0FBECDBF20E007
S1130A5070E0E0910001F091010132E14DE65CE4C7
S1130A606FE4809101019E2F28960FB6F894DEBFA3
S1130A700FBECDBFDF91CF911F910F91FF90EF90EB
S1130A80DF90CF90BF90AF9008951F920F920FB652
S1130A900F9211248F9383B783BF00B600FCFDCF60
S1130AA08F910F900FBE0F901F90189578941F92FE
S1130AB00F920FB60F9211240F900FBE0F901F903C
S1130AC0189578941F920F920FB60F9211240F90DD
S1130AD00FBE0F901F90189578941F920F920FB627
S1130AE00F9211242F933F938F939F932FB7F894D2
S1130AF033278091D8019091D90101969093D9011F
S1130B008093D8012FBF9F918F913F912F910F9088
S1130B100FBE0F901F9018951F920F920FB60F9251
S1130B2011240F900FBE0F901F9018951F920F92D3
S1130B300FB60F9211240F900FBE0F901F901895AF
S1130B401F920F920FB60F9211240F900FBE0F90A9
S1130B501F9018951F920F920FB60F9211240F90A9
S1130B600FBE0F901F9018951F920F920FB60F9201
S1130B7011240F900FBE0F901F9018951F920F9283
S1130B800FB60F9211240F900FBE0F901F9018955F
S1130B901F920F920FB60F9211240F900FBE0F9059
S1130BA01F9018951F920F920FB60F9211242F9336
S1130BB03F934F935F936F937F938F939F93AF93E1
S1130BC0BF93EF93FF9344B155B178948FB7F894E2
S1130BD0992720915001322F3695317021708FBFA3
S1130BE02223D9F4339880919A01813021F0823004
S1130BF009F039C00AC0332351F05093F0014093F7
S1130C00EF0180E10E9481002EC0332319F40E9479
S1130C10B10029C010929A0126C08FB7F894992781
S1130C208FBF2FB7F894332786B1582F5770482FAA
S1130C304072987D942B952B8074977B982B9061B0
S1130C409F77892F992786B9887D842B852B877375
S1130C508061992786B9887D842B852B877B806961
S1130C60992786B92FBFFF91EF91BF91AF919F91C3
S1130C708F917F916F915F914F913F912F910F9041
S1130C800FBE0F901F9018951F920F920FB60F92E0
S1130C9011242F933F934F935F936F937F938F937D
S1130CA09F93AF93BF93EF93FF9383B783BF00B634
S1130CB000FCFDCF81B799270196AA27BB27209175
S1130CC02201309123014091240150912501280FE4
S1130CD0391F4A1F5B1F2093220130932301409345
S1130CE024015093250178940E94CD02FF91EF9145
S1130CF0BF91AF919F918F917F916F915F914F9130
S1130D003F912F910F900FBE0F901F9018950F9346
S1130D101F93182F0FB7F89461E080E00E947B01C5
S1130D20882371F510930201809105018823A9F5A8
S1130D3080911401823089F586E00CC00E94B201D2
S1130D4080911401882349F481E080931401109266
S1130D50530188E00E9481002AC080918D018F3F59
S1130D6031F5E0910401EE2311F11CC0109203014E
S1130D7004C0FF27E357FE4F10821092040117C0EE
S1130D8081E090E002C0880F991F1A95E2F7209144
S1130D901301282B209313010AC080911401882386
S1130DA0E1F6CCCF809103018F3F19F7DFCF802F7D
S1130DB099278FBF80E090E01F910F9108951F93B2
S1130DC083E00E94C7019927182F882319F083E034
S1130DD00E948706812F99271F910895CF92DF9251
S1130DE0EF92FF920F931F93CF93DF938C01F62E14
S1130DF06A01E22E8FB7F894C82FDD2760E080E007
S1130E000E949501882321F0CFBF80E090E01EC0AE
S1130E10CFBF0F0D111D802F80680E940402F82E91
S1130E2016950795802F807C0E9404020E2D0AC01F
S1130E30EE2DFF27E01BF109EC0DFD1D80810E94C2
S1130E40040201500023A1F78F2D9927DF91CF9140
S1130E501F910F91FF90EF90DF90CF900895CF9363
S1130E60DF93CDB7DEB72C970FB6F894DEBF0FBE75
S1130E70CDBF8FB7F894282FAE014F5F5F4FDA01D3
S1130E80ECEFF1E088E001900D928150E1F7809160
S1130E907101909172018987892F99278A8780919E
S1130EA09201909193018B87892F99278C872FBF6B
S1130EB02CE060E080E691E00E94EE062C960FB6EE
S1130EC0F894DEBF0FBECDBFDF91CF9108951F937D
S1130ED0CF93DF93182F8FB7F894C82FDD2760E0E6
S1130EE080E00E949501882321F0CFBF80E090E04C
S1130EF005C0CFBF812F0E9404029927DF91CF91B3
S1130F001F910895EF92FF920F931F93CF93DF9356
S1130F10182F7B01042F8FB7F894C82FDD2760E0CA
S1130F2080E00E949501882321F0CFBF80E090E00B
S1130F3014C0CFBF1064812F992790939701809399
S1130F4096010E940402182F402F5527B70180E014
S1130F5090E00E947E02812F9927DF91CF911F910B
S1130F600F91FF90EF900895C09860911D017091CA
S1130F701E0141E08FE30E948207089582E090E021
S1130F8090934C0180934B0181E080936F0120E0AA
S1130F9030E080910201843011F421E030E0232B11
S1130FA029F484E00E94C701882319F40E94B4073D
S1130FB0089584E00E94870608951F920F920FB649
S1130FC00F9211242F933F934F935F936F937F93CB
S1130FD08F939F93AF93BF93EF93FF9380914B01B4
S1130FE090914C01019749F482E090E090934C0178
S1130FF080934B010E94BE0705C0809152018F5F10
S113100080935201FF91EF91BF91AF919F918F9186
S11310107F916F915F914F913F912F910F900FBEF0
S11310200F901F9018951F9380911301882309F046
S11310304BC0109102011F3F09F046C060E00E94BE
S11310409501882309F440C081E0809306028091D1
S113105039018823E1F11092060285E090E045C051
S1131060923069F5C09A8091030120E030E08F3F0F
S113107011F421E030E0232BE9F4109305018F3FB4
S113108019F42FEF30E00DC0282F3327F901E3576F
S1131090FE4F8081809303018F3F11F4109304016C
S11310A010832093530181E08093140188E00E940F
S11310B0810005C0109305011092140111C08091A4
S11310C01401882369F00FC081E090E00EC0809184
S11310D0050190911401882319F2923021F0EFCF89
S11310E080E00E94A60180E090E01F9108951F9384
S11310F0CF93DF939FB7F894C92FDD271C2F9091CE
S11311000201981721F0CFBF81E090E03AC08FEF41
S113111080930201309113013323F1F48FB7F894D3
S113112099271092F6018FBF0E941308CFBF11C0F8
S11311302093020181E090E002C0880F991F4A9534
S1131140E2F7809538233093130186E00E948100F2
S11311501FBF80E090E015C080E065E0E32FFF272B
S11311600E94AD1A292F492F5527CF01042E02C002
S1131170959587950A94E2F780FDDACF822F8F5FE9
S1131180EFCFDF91CF911F9108951F93CF93DF93FA
S11311908FB7F894C82FDD271C2F80914B019091B5
S11311A04C01892B29F484E00E947708CFBF1EC02C
S11311B010926F0180915201882311F0B79904C0F5
S11311C00E9908C0882319F08150809352010E941F
S11311D0BE070BC081E090E090934C0180934B01DB
S11311E01092520184E00E9477081FBFDF91CF91D3
S11311F01F9108950E948F03C09AC09888E00E94AE
S1131200670788E00E946707C09A84E00E94770815
S11312100E94C5080895FF920F931F93CF93DF9305
S1131220F82E8B018FB7F894C82FDD2760E080E09B
S11312300E949501882321F0CFBF80E090E00CC08C
S1131240CFBF8F2D0E940402812F99270E94040290
S1131250802F0E9404029927DF91CF911F910F9153
S1131260FF9008951F931FB7F8948091510188232C
S113127019F460E070E009C060E080916B0288239B
S113128009F461E081E0682777278091730188235E
S113129019F480E090E00AC090E08091FB0188237B
S11312A009F491E081E09827892F9927762F662702
S11312B0770F770F770FF4E0880F991FFA95E1F70E
S11312C0826E9262682B792B81E10E940B09812F37
S11312D099278FBF1F9108958FB7F894992760912C
S11312E005028FBF85E0689FB0011124625D7E4FC7
S11312F0706488E10E940B090895EF92FF921F9396
S1131300CF93DF93E0907401F0907501F70182A50B
S11313109927182F882309F41FE1C09880914F0161
S1131320811749F0612F77276F717070606E706854
S113133085E10E940B0910934F01F70110818FB7CB
S1131340F894C82FDD2760E080E00E94950188238F
S113135011F0CFBF12C0CFBF8EE390E090939701FE
S1131360809396018EE30E9404021150412F552769
S113137060E070E0C7010E947E02DF91CF911F916F
S1131380FF90EF9008950F931F93CF93DF93EC0199
S11313900FB7F89411270E943701FC018FE3808373
S11313A00FBF109269021092680261E082E00E940D
S11313B07B01882319F085E090E072C080910702D8
S11313C08F5F8093070281508B838FB7F894082F27
S11313D0112762E081E00E949501882329F40FBF60
S11313E00E949F0281E05BC08FB7F894992724E0A4
S11313F02093F7018FBFD0939E01C0939D010FBF2F
S1131400FE013196818129819927982F88273327D6
S1131410822B932B80729C7C8983892F99278183CB
S11314202981982F882733272164822B932B898342
S1131430892F992781831CA618A619A619AA18AA68
S11314401FA680E88EA761E06093FA0140919D0198
S113145050919E018FB7F894282F3327809115015E
S1131460909116018830910511F0019711F02FBF6A
S113147015C082E090E0909316018093150160936B
S113148072025093750140937401109221012FBF91
S11314900E94DF06882311F40E947D0980E09927C9
S11314A0DF91CF911F910F910895CF93DF93DA01CC
S11314B0422F2D3118F082E090E05EC0ED018B8761
S11314C06E83872F99278F832FB7F89433278091C2
S11314D07101909172012FBFFD018483892F992797
S11314E085832FB7F89433278091060190910701E3
S11314F02FBF8887892F99278987319681812981F0
S11315009927982F8827332720643868822B932BB8
S11315108983892F99278183435F4C934D50809110
S11315200901882359F010920901642FCD010E940A
S1131530C3099927282F8823A9F417C0842F992732
S113154090939C0180939B01B0931A01A09319017D
S11315508CE00E94810080910901882349F489E08C
S113156090E00AC08FEF80930901822F992704C06D
S113157010927A0180E090E0DF91CF910895AF92CC
S1131580BF92CF92DF92EF92FF920F931F935B0172
S11315906C016091E30161FF20C02091DB01309177
S11315A0DC014091DD015091DE01E090DF01F0901B
S11315B0E0010091E1011091E201D601C501821B15
S11315C0930BA40BB50B8E159F05A007B10728F04C
S11315D0EBEDF1E0A0E0B0E022C0E4EEF1E06091D8
S11315E0EC0161FF75C02091E4013091E501409167
S11315F0E6015091E701E090E801F090E9010091E3
S1131600EA011091EB01A21AB30AC40AD50AAE1476
S1131610BF04C006D10608F45BC0A1E0B0E060FFDF
S113162004C080858D7F808708C02E0D3F1D401F1C
S1131630511F2083318342835383A13009F048C072
S113164080910802882309F043C0ABEAB1E0EBE7DC
S1131650F1E08CE001900D928150E1F74FE951E007
S11316608FEF8093A5018093A60189E98093AA0155
S11316708091D6019091D701892B21F55093D70100
S11316804093D60189E180939F0180910C018823C6
S1131690A9F010920C012CE06FEF7FEF89E90E9412
S11316A0550A9927282F882349F081E080930C015B
S11316B01092D7011092D601222321F481E0809365
S11316C0080206C080910802882311F40E94A80031
S11316D08BE00E9481001F910F91FF90EF90DF90AB
S11316E0CF90BF90AF9008950F931F93CF93DF9344
S11316F0182FEB01042FE82FFF27EE0FFF1FEA52EC
S1131700FE4F1182108210920C01E091D601F091EB
S1131710D701309721F08091670280FF0EC081E0ED
S113172080930C0103C08EE00E9481001123B9F460
S1131730602FCE010E94270112C020812D50332733
S113174067817727762F662786819927682B792BDF
S1131750AF0183850E94550A882341F3E4CFDF91CA
S1131760CF911F910F9108959B0180910C018823C3
S113177049F46091D6017091D7016217730711F48F
S11317800E94740B08951F93182F81E090E09093AA
S1131790160180931501109239010E9413088FB726
S11317A0F894992710930F018FBF82E00E94810063
S11317B01F910895CF92DF92EF92FF920F931F93A0
S11317C0CFB6F894DD240E94AA03DC01CB0166E4C1
S11317D070E00E94B91A6BE0E62EF12CE80EF91EB7
S11317E0F0926F02E0926E020E942A0400271127F1
S11317F0A80197010E94E704CFBE1F910F91FF90AB
S1131800EF90DF90CF9008951F93CF93DF938FB71E
S1131810F894C82FDD271C2F809115019091160193
S11318200897C9F489E00E94670783E00E9477085B
S1131830C09A81E090E090931601809315018FB7D0
S1131840F894992723E020930F018FBF82E00E9430
S11318508100CFBF30C0C09880917202882311F0FC
S113186085E001C084E00E94670783FD09C080E031
S11318700E94670783FF04C085E090E020E003C076
S113188083E090E021E09093160180931501C09AC3
S11318901FBF222341F01092210183E00E947708A8
S11318A00E94DA0B08C00E942A0420E431E040E0E0
S11318B050E00E94E704DF91CF911F910895EF92C9
S11318C0FF920F931F93CF93DF938B018091960127
S11318D09091970186FF40C18F7B8F3309F08EC1B1
S11318E0C0911D01D0911E01588150934D018091EA
S11318F04B0190914C018530910509F443C0863029
S1131900910509F48AC0029709F01FC185E090E0AF
S113191090934C0180934B0140913801852F992776
S11319200196242F3327281739074CF1B79906C09D
S11319300E9904C0451B41504093380140914D011C
S11319404A32E8F44423A1F0BE016F5F7F4F483070
S113195018F047E050E007C086E090E090934C0117
S113196080934B01552780E090E00E947E0246C19F
S113197010926F01C09A84E00E947708E3C00E942D
S1131980FA083CC186E090E090934C0180934B01AF
S113199080917301882309F439C08091FB01882365
S11319A0A9F5898185FF32C08F814E812FB7F894C4
S11319B0332760919201709193012FBF9927982F3B
S11319C088275527842B952B8617970759F08F81E5
S11319D02E819927982F88273327822B932B8F5F6B
S11319E09F4FA1F489818770813081F4C09AC09897
S11319F08AE00E946707C09AC09840914D01475001
S1131A002896BE018FE30E948207F8C040914D01E1
S1131A10475055272896BE01A6CFC09A80915201FF
S1131A20882339F484E00E94770880915201882346
S1131A3011F0B7990AC00E9B08C0909161029923D6
S1131A4021F080914D018B3038F480911D019091EB
S1131A501E010E949B033DC0913001F5E091660296
S1131A60FF27EE0FFF1FEE0FFF1FE35FFD4F2081E7
S1131A70318142815381E0911D01F0911E0121AB1E
S1131A80BB27A52F942F832F80ABCA01AA27BB277E
S1131A9087A7252F33274427552726A78091660239
S1131AA09927019668E070E00E94CD1A809366023F
S1131AB080916102815080936102882351F080916A
S1131AC01D0190911E010E949B03109266021092C8
S1131AD0610280914D01FE01E80FF11D808187FFB5
S1131AE031C0012B79F169816770E0911D01F0919A
S1131AF01E01623019F5A0917401B091750110971F
S1131B0009F180911501909116010797D9F4ED011F
S1131B109B8183819817B1F487B78F7E87BF9081AB
S1131B2081E08CA7E90FF11D8291319688A780810D
S1131B308F7789A780E00E94C30B04C0613011F441
S1131B4089E02AC00E94C50859C010926F01C09A4A
S1131B5084E00E94770852C08E3309F04FC0C09AC7
S1131B6080911501909116010897C9F4C09889E0F5
S1131B700E946707C09A83E00E94770881E090E0A2
S1131B8090931601809315018FB7F894992723E059
S1131B9020930F018FBF82E00E9481002FC08091AB
S1131BA07202882349F484E090E0909316018093B4
S1131BB015010E94040C22C083E00E94770883E090
S1131BC090E090931601809315010E94AA03DC0112
S1131BD0CB0166E371E00E94B91A7BE0E72EF12C99
S1131BE0E80EF91EF0923301E09232010E942A04B9
S1131BF000271127A80197010E94E704DF91CF91E4
S1131C001F910F91FF90EF9008951F920F920FB6BE
S1131C100F9211242F933F934F935F936F937F936E
S1131C208F939F93AF93BF93EF93FF932FB1E09163
S1131C30ED01F091EE01309739F08091D40190914B
S1131C40D501E80FF91F20838091D4019091D5012B
S1131C5001969093D5018093D40180E00E94AC0159
S1131C6040911F01509120018091D4019091D501A0
S1131C708417950718F40E9410021CC06091ED01AE
S1131C807091EE0180916C0290916D021092EE01C0
S1131C901092ED0110926D0210926C0210922001CC
S1131CA010921F011092D5011092D4012FB120E09F
S1131CB00E945F0CFF91EF91BF91AF919F918F9123
S1131CC07F916F915F914F913F912F910F900FBE34
S1131CD00F901F901895AF92BF92CF92DF92EF9220
S1131CE0FF920F931F93CF93DF93CDB7DEB7A897DF
S1131CF00FB6F894DEBF0FBECDBFE82FFF27E1314A
S1131D00F10508F04BC6EA5BFF4FEE0FFF1F05908D
S1131D10F491E02D099480916702882309F43EC66A
S1131D2090E011E096C50FB7F894112781E00E9466
S1131D30020551E0E52EF12CF0921601E092150116
S1131D40109217011092390110924F010FBF0FB773
S1131D50F89411270E948F03F0924C01E0924B01FA
S1131D6010926F0189B78F7B89BF80E488BF8AB7DF
S1131D7080628ABF8AB78F7E8ABF89B7806489BF31
S1131D800FBF8FB7F894082F1127809110019091FD
S1131D901101049719F483E00E9467070FBF0FB77E
S1131DA0F8941127C09A80E00E9477080FBF8FB77C
S1131DB0F894992722E02093F7018FBF48EE53E06F
S1131DC060E070E081E00E946A03E8C58FB7F89490
S1131DD099271092F70171C08FB7F8949927F09062
S1131DE00F018FBF63E081E00E949501882359F1C0
S1131DF00FB7F8941127109216011092150187B7A6
S1131E008F7E87BF87B78F7D87BF83E00E94770867
S1131E10C09A0FBF0FB7F894112710924C0110927B
S1131E204B010E948F03C09A89B78F7B89BF0FBF74
S1131E301092110110921001DE98DD98DE9A81E073
S1131E400E94810007C08FB7F894992722E020935D
S1131E50F7018FBF00919D0110919E010E949F0286
S1131E608091680290916902892B09F097C58FEFE0
S1131E70809309014F2DB801E2C48FB7F894282F3D
S1131E803327122F80917002882309F581E0809313
S1131E9070028091100190911101049721F481E066
S1131EA00E94870603C084E00E9481001FBF76C59C
S1131EB08FB7F8949927109270028FBF6FC58FB7B0
S1131EC0F894282F332780911201882311F02FBF13
S1131ED065C52FBF80B3992746E0969587954A95A7
S1131EE0E1F7182F11709091940180919501891751
S1131EF0D9F01917C9F484E090E09093110180930C
S1131F0010018FB7F894992721E0209312018FBF15
S1131F1060E070E08DE10E940B090E942F07C09AD7
S1131F20C09880E00E9481001093950185E06DC007
S1131F308FB7F8949927109102018FBF123009F4DA
S1131F4067C0133030F4112359F0113009F026C55D
S1131F5048C0133009F476C0143009F01FC5A2C07C
S1131F60C0988FB7F894082F112780911001909191
S1131F7011010297A1F583E090E090931101809301
S1131F80100168E170E08DE10E940B0981E080930B
S1131F9094011092120180B3992736E096958795A3
S1131FA03A95E1F7817090708093950185E00E94E5
S1131FB0810081E00E9467076FE772E08CE10E9474
S1131FC00B090E946C090E94320966E57AE287E1F6
S1131FD00E940B096FEF70E885E10E940B090FBFA7
S1131FE0DDC4C09886E00E9467070E946C090E94C5
S1131FF032090E942F07C09AC09883E00E946707A5
S1132000C09A81E00E94770884E00E948100C6C4DF
S1132010C0988FB7F894082F112760E080E00E94E1
S11320209501882311F00FBF0AC00FBF83E50E94FA
S1132030040280E00E94040280E00E940402C09A2C
S113204082E02DC08FB7F8949927209115018FBF96
S1132050243039F0283041F0223001F50E947D0906
S11320609DC40E94040C9AC4C09889E00E9467072A
S1132070C09A83E00E9477088FB7F894992721E0EB
S113208030E030931601209315018FBF8FB7F89479
S1132090992710930F018FBF82E0B7CF83E00E948E
S11320A077087CC40E94B40779C40FB7F894112749
S11320B040911F01509120016091ED017091EE015A
S11320C080916C0290916D021092EE011092ED01DC
S11320D010926D0210926C021092200110921F0156
S11320E01092D5011092D40120E00E945F0C77CFAA
S11320F02FB7F8943327809153018093050182E030
S1132100809314012FBF80910501882309F046C4F0
S1132110B89AC09886E079CFA0911D01B0911E01B4
S11321201C919D01210F311DF9018081881F882791
S1132130881FFD0183A7F90180818F77FD0181A7A5
S113214021503040F9018081FD0180A7A0911D013B
S1132150B0911E01FD0132818FB7F8949927209127
S113216051018FBF222309F490C0832F992796959C
S1132170879596958795837090708230910541F587
S1132180878146812FB7F89433276091920170912B
S113219093012FBF9927982F88275527842B952B98
S11321A08617970719F481E090E06CC0FD018781E0
S11321B0268140E050E09927982F88273327822BE7
S11321C0932B8F5F9F4F11F441E050E0CA015AC036
S11321D0039709F055C29E012F5F3F4F4CEF51E02A
S11321E088E0FA010190AF01F90101929F01815049
S11321F0C1F79E012F5D3F4FAE014F5F5F4F88E0F7
S1132200FA010190AF01F90101929F018150C1F7D8
S11322109E01275F3F4FAE014F5D5F4F88E0FA019B
S11322200190AF01F90101929F018150C1F79E0114
S11322302F5E3F4FAE01475F5F4F88E0FA01019088
S1132240AF01F90101929F018150C1F79E01275E00
S11322503F4FAE014F5E5F4F88E0FA010190AF013E
S1132260F90101929F018150C1F748E050E0BE019D
S1132270675E7F4FCD0106960E94361B892B09F0BD
S1132280FFC103C0882309F4FBC11D3008F4F8C161
S1132290E0901D01F0901E01F7012281822F992701
S11322A0F6E096958795FA95E1F7039719F468E0B7
S11322B070E002C062E070E0822F992796958795BE
S11322C09695879583709070039719F488E090E051
S11322D002C082E090E026E030E0E20EF31E40E02F
S11322E050E020E030E0F701E80FF91F8AEF9FEF9C
S11322F0E80EF91E05C08191480F511D2F5F3F4F15
S113230026173707C4F3F70163818FEF80936A02BE
S11323108FB7F894782F20E030E0E6E2F1E0808196
S113232091818417950731F48281861709F4B2C02C
S113233020936A022F5F3F4F33962430310579F79B
S11323407FBF90916A023FB7F8949F3F21F080913C
S11323501801891799F420911801822F9927FC01FB
S1132360EE0FFF1FE80FF91FEA5DFE4F5183408314
S113237062832F5F2370209318010CC0892F992743
S1132380FC01EE0FFF1FE80FF91FEA5DFE4F5183BA
S113239040836283832F99278FBF0FB7F894112747
S11323A0C7010E943701FC0190810FBFF70183A58B
S11323B0882309F461C19F3309F05EC18781468196
S11323C02FB7F894332760910601709107012FBF4E
S11323D09927982F88275527842B952B861797079D
S11323E061F0878126819927982F88273327822BAC
S11323F0932B8F5F9F4F09F03FC1F7018385893984
S113240009F03AC18701045F1F4F2FB7F8943327AF
S11324108BB391E089278BBB2FBFA4E1AA2EB12CEB
S1132420AE0CBF1C848975E1C72ED12CCE0CDF1CE9
S113243025899927582F44273327422B532B46307D
S1132440510551F5868527859927782F66273327E7
S1132450622B732B80910001909101016817790719
S1132460D9F440935E0110925D01868927899927EA
S1132470982F88273327822B932B80936001892FF1
S1132480992780935F0160935801872F9927809340
S1132490570137C07FBFF0C0F5018081F60120816C
S11324A09927582F44273327422B532B4730510564
S11324B041F5F801828123819927782F66273327F4
S11324C0622B732B809100019091010168177907A9
S11324D0C1F440936A01109269018285238599278A
S11324E0982F88273327822B932B80936C01892F75
S11324F0992780936B0160936401872F99278093B8
S1132500630110920E01F801828123819927982F8B
S113251088273327822B932B2091000130910101CE
S11325208217930761F48091600180938C018091FC
S11325305E018093700180910E0180938B0181E094
S113254080930E0171E0BCE040918C0150918B01AD
S113255060917001A1E0872F9927FC01EE0FFF1F06
S1132560E80FF91FEE0FFF1FEE0FFF1FE15AFE4F9A
S113257080819927382F222781819927282B392B6D
S1132580842F99272817390740F4572F422F7B9F10
S1132590F0011124E35AFE4F61817A2F7F5FA72F48
S11325A07230C8F270930E016093700150938B01E6
S11325B040938C01842F9927809386011092850182
S11325C0862F9927809384011092830181E0809360
S11325D08101809100019091010180937E01892FF6
S11325E0992780937D0148EE53E060E070E081E03C
S11325F00E946A0380910E018F5F80930E018823ED
S113260009F481CFF801828123819927982F8827A3
S11326103327822B932B20910001309101018217E3
S1132620930751F58781813039F5F5018081F601F1
S113263020819927982F88273327822B932B8093E7
S11326408401892F992780938301F801848125814E
S11326509927982F88273327822B932B80938001E7
S1132660892F992780937F01DA9848EE53E060E040
S113267070E081E00E946A03F0921E01E0921D0165
S11326808FB7F894992710926F018FBF0E94C508E5
S113269085C180914E01882361F520910902309112
S11326A00A0240910B0250910C02EFB7F894FF27F5
S11326B06091F2017091F3018091F4019091F50120
S11326C0E0903401F090350100913601109137010A
S11326D06E0D7F1D801F911FEFBF20930902309361
S11326E00A0240930B0250930C0210924E010E9476
S11326F050030E94A6026EC00E94A6025B016C01F8
S11327008FB7F89499271092D3018FBF8091E3017A
S113271081FF25C08091DB019091DC01A091DD0156
S1132720B091DE01A6019501281B390B4A0B5B0B06
S1132730E090DF01F090E0010091E1011091E201ED
S1132740E21AF30A040B150B3FEFE3163FEFF3060F
S11327503FEF03073FE7130711F061E009C0EFEF14
S1132760EE2EEFEFFE2EEFEF0E2FEFE71E2F60E0C1
S11327708091EC0181FF24C08091E4019091E501F6
S1132780A091E601B091E701A6019501281B390B40
S11327904A0B5B0BDA01C9012091E8013091E90190
S11327A04091EA015091EB01281B390B4A0B5B0B5A
S11327B02E153F05400751071CF479018A0103C017
S11327C0662309F4EBC01E141F04100611062CF036
S11327D0C601B5010E94BF0AE1C0E0920902F0926D
S11327E00A0200930B0210930C0281E080934E01C5
S11327F0A8019701C601B5010E945003CFC0909172
S11328007A0180910901981709F4C8C090930901CD
S11328109923D1F40091190110911A0160919B013F
S1132820C8010E94C309482F5527442309F4B6C0A0
S11328308FEF809309016091190170911A01F801D9
S113284083850E94B40BAAC08FEF80930901A6C0B0
S1132850110F20916702812F8223C1F0E92FFF27F6
S1132860EE0FFF1FEA52FE4F408151811182108208
S1132870812F8095282320936702992339F463E0FC
S1132880CA010E942701110F91E0E3CF9F5F9830A6
S1132890F8F284C080910C01E82FFF27EE0FFF1F90
S11328A0EA52FE4F6081718141E00E94740B76C050
S11328B02FB7F89433278091040280930D0183E0AD
S11328C080931C012FBF80910D01882309F066C0FD
S11328D081E080939A01109265020E94B1005EC06B
S11328E010929A0180916502882309F057C08FB72E
S11328F0F894F82E80911C01833009F040C0809137
S11329000D018823E1F58091DA01882309F040C0A4
S113291038C09095A923A08360931B0125C06F5FE5
S11329207F4F6130710511F460E070E0862F869569
S113293086958695E82FFF27E652FE4FA081462F05
S113294055279A012770307081E090E002C0880F0B
S1132950991F2A95E2F7982F8A2F8923D1F66017B9
S11329607107E9F64FEF50E0409304028FEF809334
S11329700D0181E080931C018FE00E948100FFBE65
S11329800DC081E080930D0110921C013798F7CFA0
S113299080911B01082F1127B801C1CFA8960FB64B
S11329A0F894DEBF0FBECDBFDF91CF911F910F9181
S11329B0FF90EF90DF90CF90BF90AF9008958091FB
S11329C062028F3FB1F0282F3327F901E65CFE4FF6
S11329D08081809362028F3F11F4809371028FEFA4
S11329E080832F3F31F0822F0E946B0E81E090E0B4
S11329F0089580E090E0089578941F920F920FB6A6
S1132A000F9211242F923F924F925F926F927F9276
S1132A108F929F92AF92BF92CF92DF92EF92FF92EA
S1132A200F931F932F933F934F935F936F937F93D2
S1132A308F939F93AF93BF93CF93DF93EF93FF93C2
S1132A40C6B5D7B58FB7F894282E0E942A049B01E7
S1132A502C1B3D0B442755272B013C01421A530ADA
S1132A60640A750A809115019091160185309105CB
S1132A7021F0069709F0E0C0BFC086E090E0909393
S1132A8016018093150131E0332E30926D011092BE
S1132A90170180E00E940205E0917401F091750134
S1132AA041AABB27A72D962D852D80ABC301AA274C
S1132AB0BB2787A7872D9927AA27BB2786A7E0913D
S1132AC07401F091750185A5882309F484C060819F
S1132AD0655077274F01860E971EF4012081E1800F
S1132AE08281A3809927AA27BB27BA2FA92F982FC1
S1132AF08827332744275527522F44273327222753
S1132B00FF24002711278701FF24EE242E293F29C3
S1132B10402B512BBB24CC24DD242A293B294C29CE
S1132B205D29822B932BA42BB52B84199509A60917
S1132B30B7098383292F3A2F4B2F552722839D01D1
S1132B404427552721838B2F9927AA27BB278083C6
S1132B50C09824E0A40180E090E00E94EE06C09AB0
S1132B60F4012081E1808281A3809927AA27BB27D1
S1132B70BA2FA92F982F8827332744275527522F58
S1132B80442733272227FF24002711278701FF2406
S1132B90EE242E293F29402B512BBB24CC24DD24A9
S1132BA02A293B294C295D29822B932BA42BB52B55
S1132BB0840D951DA61DB71D8383292F3A2F4B2FF6
S1132BC0552722839D014427552721838B2F99273D
S1132BD0AA27BB278083E0917401F091750181815C
S1132BE085FF02C03092390183E00E94770887B7DD
S1132BF08F7E87BF84997AC010926D0181E00E9414
S1132C000205E0917401F0917501818185FF0FC087
S1132C1087E090E090931601809315010E942A04A6
S1132C2020E031E040E050E00E94E70403C080E08F
S1132C300E94C30B849B5AC080911701882391F58D
S1132C4080916D01882371F511E010936D010E944C
S1132C50020580B320916102283098F4E091660265
S1132C60E20FFF27E770F070EE0FFF1FEE0FFF1F5C
S1132C70E35FFD4F40825182628273822F5F209313
S1132C80610210931701D0939901C093980184991C
S1132C902DC0992764E0969587956A95E1F7182FDA
S1132CA0117001C010E080916D018130F9F410922F
S1132CB06D010E940205109217011123B9F480914D
S1132CC0980190919901C81BD90B2A9778F48091A7
S1132CD06102882319F0815080936102809174010C
S1132CE090917501009711F00E949B032FBEFF91F4
S1132CF0EF91DF91CF91BF91AF919F918F917F9190
S1132D006F915F914F913F912F911F910F91FF9080
S1132D10EF90DF90CF90BF90AF909F908F907F9077
S1132D206F905F904F903F902F900F900FBE0F9039
S1132D301F90189578941F920F920FB60F9211243A
S1132D401F932F933F934F935F936F937F938F932F
S1132D509F93AF93BF93EF93FF9387B78F7E87BF04
S1132D6078941FB7F8948091870190918801A0917D
S1132D708901B0918A010097A105B10509F051C0FC
S1132D8080911501909116018530910561F186308D
S1132D90910530F48330910549F0049781F51AC008
S1132DA087309105F1F0089751F514C0869B0FC048
S1132DB084E090E090931601809315010E942A0408
S1132DC027E030E040E050E00E94E70418C00E9491
S1132DD0DA0B15C00E94DF06882389F40E94040CD4
S1132DE00EC080E00AC089E00E94670781E00E946B
S1132DF0020583E00E94770887E00E94C30B80915C
S1132E00100190911101019771F482E090E0909388
S1132E10110180931001DE98DE9A80E00E948706FB
S1132E2002C00E944704812F99278FBFFF91EF9121
S1132E30BF91AF919F918F917F916F915F914F91CE
S1132E403F912F911F910F900FBE0F901F901895D7
S1132E5061E081E00E947B018823E9F48FB7F89454
S1132E60282F33278091100190911101892B11F0A3
S1132E702FBF20C081E090E0909311018093100156
S1132E802FBFDD9A0E942A0424E130E040E050E0A4
S1132E900E94E7040FC062E081E00E94950188234C
S1132EA019F089E090E0089561E081E00E949501C5
S1132EB0882319F080E090E0089585E090E008957B
S1132EC01F93CF93DF93CDB7DEB7E0970FB6F89497
S1132ED0DEBF0FBECDBF1FB7F89441E150E06FEFE6
S1132EE070E08AE391E00E94431B8FEF80936202BB
S1132EF08093710281E08EBD88E080BF83E083BF50
S1132F008CB59DB54AE72CB53DB52817390708F4AB
S1132F104150442311F0C901F6CF92B782B7891703
S1132F20E9F32CB53DB592B782B78917E9F38CB5AF
S1132F309DB5821B930B409655E0969587955A95BF
S1132F40E1F7909364028093630213BE83B78EBD4E
S1132F508EB580BF12BE1DBC1CBC8FEF86BF86B76A
S1132F6080937C0080B7992787709070892BD1F764
S1132F70D29AD19AD09ADA9AD99AD89A15BA8FEF66
S1132F8084BBD498DC9816B81DBC1CBC87B784607D
S1132F9087BF8EB5887F84608EBD0E94DF1488232E
S1132FA0E1F71092DA018FEF80935401E6E2F1E049
S1132FB08FEF9FEF918380831282339621E0E23377
S1132FC0F207C1F70E94AA036093070280910001EF
S1132FD0909101010196AA27BB27809376019093D3
S1132FE07701A0937801B093790180B7886080BF9E
S1132FF08BE083BF86EE81BF87B7826087BF0E9464
S1133000CD028DE292E090931E0180931D018E9873
S1133010B89A8C988FEF80938D011092F6011092DC
S1133020F7011092F8011092F901B89AD69AD59A3C
S11330308FB7F894992720910601309107018FBF2B
S113304030939301209392010E94150529A73AA772
S11330504BA75CA76DA77EA78FA798ABDE019196BF
S1133060FE01B99688E001900D928150E1F7DE01EE
S11330705196FE01B19688E001900D928150E1F7DE
S1133080DE015996FE01719688E001900D928150FF
S1133090E1F7ACEFB1E0FE01799688E001900D9282
S11330A08150E1F7809108019927909372018093F0
S11330B071018FE18093F1018AE1809305020E94FE
S11330C0150529A73AA74BA75CA76DA77EA78FA7CD
S11330D098ABDE019196FE01B99688E001900D92BD
S11330E08150E1F7DE011196FE01B19688E001906E
S11330F00D928150E1F7DE011996FE01319688E0C8
S113310001900D928150E1F7ACEFB1E0FE013996E8
S113311088E001900D928150E1F7ACEFB1E0FD0140
S113312037969C9180818D939083319781E0EF3F16
S1133130F807B9F781E08093510110926B028093F4
S113314073011092FB010E94DF148823E1F7812FA1
S113315099278FBF789410928601109285018091EF
S113316000019091010180937E01892F992780931A
S11331707D010E9428170E942817882311F00E94BD
S1133180A8008FB7F894482F55274BC087B79927C5
S113319083709070892B19F4E5E0F0E013C080B7D8
S11331A0992787709070892BD1F781B792B7891BC3
S11331B08C3030F082B7853F18F4E3E0F0E002C0D1
S11331C0E2E0F0E087B7887BC1F480917D008B7FDB
S11331D0A1F46E9912C08AB190919A00892B8871DA
S11331E061F48091740082FD08C0379B03C081E0C4
S11331F090E005C085E090E002C080E090E025B753
S11332008E1708F4E82FFF27E255FF4FE491237E41
S11332102062E22BE5BF78948895F89485B78F7D7A
S113322085BF809162028F3F09F4B0CF282F3327E6
S1133230F901E65CFE4F8081809362028F3F11F4B6
S1133240809371028FEF80832F3F09F49FCF4FBF8C
S1133250822F0E946B0E95CFACE2B0E0E2E3F9E17D
S11332600C94FF1A222E332E442E552E662E772EC2
S1133270882E992EFE013196A8E01192AA95E9F7BD
S113328029823A824B825C826D827E828F8298860A
S1133290FE013996B8E01192BA95E9F7A986BA8683
S11332A0CB86DC86ED86FE860F87188B89819A8112
S11332B0AB81BC8189A79AA7ABA7BCA77C018D0170
S11332C08FEF9FEFA0E0B0E0E822F9220A231B234E
S11332D089A59AA5ABA5BCA51D01442455248985BF
S11332E09A85AB85BC858DA39EA3AFA3B8A75C01CB
S11332F06D018FEF9FEFA0E0B0E0A822B922CA22AF
S1133300DB228DA19EA1AFA1B8A53D0188249924FB
S1133310C801B701A60195010E94E01A69A37AA326
S11333208BA39CA3C801B701A40193010E94E01AD6
S11333307B018C01C201B101A60195010E94E01A32
S11333405B016C01C201B101A40193010E94E01A66
S11333503B014C01EA0CFB1C0C1D1D1D89A19AA10B
S1133360ABA1BCA19D01442755272E0D3F1D401F35
S1133370511F2A153B054C055D0540F480E090E0A3
S1133380A1E0B0E0680E791E8A1E9B1ECA01AA271E
S1133390BB27860D971DA81DB91D8D8F9E8FAF8FDE
S11333A0B8A3A9013327222789A19AA1ABA1BCA163
S11333B0A070B070280F391F4A1F5B1F298F3A8FE6
S11333C04B8F5C8FA98CBA8CCB8CDC8CED8CFE8CF7
S11333D00F8D18A1FE01719698E011929A95E9F764
S11333E0ED8AFE8A0F8B188F2D813E814F8158857F
S11333F06DA17EA18FA198A50E94E01A3B014C010A
S11334002D853E854F85588969A57AA58BA59CA5F0
S11334100E94E01A2D893E894F89588D260F371F47
S1133420481F591F260D371D481D591D2D8B3E8BD6
S11334304F8B588F6D887E888F88988C2A2D3B2DD2
S11334404C2D5D2D662D772D882D992DE2E1AC96BE
S11334500C941B1BA0E1B0E0E0E3FAE10C94FF1A2A
S1133460222E332E442E552E662E772E882E992EFC
S1133470002309F466C088E0FE01319611928A9512
S1133480E9F729833A834B835C836D837E838F8240
S11334909887E0E2E01B1E16CCF52D813E814F811A
S11334A05885602F772767FD7095DA01C901062ECC
S11334B004C0B695A795979587950A94D2F78D87FA
S11334C09E87AF87B88B04C0220F331F441F551F3C
S11334D0EA95D2F789819A81AB81BC8104C0B69503
S11334E0A795979587956A95D2F7282B392B4A2B60
S11334F05B2B29873A874B875C8729843A844B84E2
S11335005C846D847E848F8498881BC01D861E868F
S11335101F86188A2E2F332727FD30953095219545
S11335203F4F8D819E81AF81B88504C0B695A79524
S1133530979587952A95D2F789879A87AB87BC8711
S1133540DCCF222D332D442D552D662D772D882D3E
S1133550992DE2E160960C941B1B991B79E004C041
S1133560991F961708F0961B881F7A95C9F78095BE
S11335700895AA1BBB1B51E107C0AA1FBB1FA617B6
S1133580B70710F0A61BB70B881F991F5A95A9F708
S113359080959095BC01CD01089597FB092E0726CF
S11335A00AD077FD04D0E5DF06D000201AF4709528
S11335B061957F4F0895F6F7909581959F4F0895F3
S11335C0629FD001739FF001829FE00DF11D649F03
S11335D0E00DF11D929FF00D839FF00D749FF00D8F
S11335E0659FF00D9927729FB00DE11DF91F639F30
S11335F0B00DE11DF91FBD01CF01112408952F92D3
S11336003F924F925F926F927F928F929F92AF926E
S1133610BF92CF92DF92EF92FF920F931F93CF93BB
S1133620DF93CDB7DEB7CA1BDB0B0FB6F894DEBF52
S11336300FBECDBF09942A88398848885F846E8478
S11336407D848C849B84AA84B984C884DF80EE80C2
S1133650FD800C811B81AA81B981CE0FD11D0FB6CB
S1133660F894DEBF0FBECDBFED010895FB01DC0170
S113367004C08D910190801921F441505040C8F745
S1133680881B990B0895DC0101C06D934150504093
S1093690E0F70895FFCFEE
S11136960100FFFFFFFF010022FFFFFF010103
S9030000FC
